{
  "contractName": "CrowdFunding",
  "abi": [
    {
      "constant": true,
      "inputs": [
        {
          "name": "",
          "type": "uint256"
        }
      ],
      "name": "campaigns",
      "outputs": [
        {
          "name": "beneficiary",
          "type": "address"
        },
        {
          "name": "name",
          "type": "string"
        },
        {
          "name": "fundingGoal",
          "type": "uint256"
        },
        {
          "name": "numFunders",
          "type": "uint256"
        },
        {
          "name": "amount",
          "type": "uint256"
        }
      ],
      "payable": false,
      "stateMutability": "view",
      "type": "function"
    },
    {
      "constant": true,
      "inputs": [],
      "name": "owner",
      "outputs": [
        {
          "name": "",
          "type": "address"
        }
      ],
      "payable": false,
      "stateMutability": "view",
      "type": "function"
    },
    {
      "constant": false,
      "inputs": [
        {
          "name": "beneficiary",
          "type": "address"
        },
        {
          "name": "goal",
          "type": "uint256"
        },
        {
          "name": "name",
          "type": "string"
        }
      ],
      "name": "newCampaign",
      "outputs": [
        {
          "name": "campaignID",
          "type": "uint256"
        }
      ],
      "payable": false,
      "stateMutability": "nonpayable",
      "type": "function"
    },
    {
      "constant": false,
      "inputs": [
        {
          "name": "campaignID",
          "type": "uint256"
        }
      ],
      "name": "contribute",
      "outputs": [],
      "payable": true,
      "stateMutability": "payable",
      "type": "function"
    },
    {
      "constant": false,
      "inputs": [
        {
          "name": "campaignId",
          "type": "uint256"
        },
        {
          "name": "funderAddr",
          "type": "address"
        }
      ],
      "name": "getCampaignFunderByAddress",
      "outputs": [
        {
          "name": "amount",
          "type": "uint256"
        }
      ],
      "payable": false,
      "stateMutability": "nonpayable",
      "type": "function"
    },
    {
      "inputs": [],
      "payable": false,
      "stateMutability": "nonpayable",
      "type": "constructor"
    },
    {
      "anonymous": false,
      "inputs": [
        {
          "indexed": false,
          "name": "a",
          "type": "address"
        }
      ],
      "name": "Changed",
      "type": "event"
    },
    {
      "anonymous": false,
      "inputs": [
        {
          "indexed": false,
          "name": "campaignId",
          "type": "uint256"
        },
        {
          "indexed": false,
          "name": "creator",
          "type": "address"
        }
      ],
      "name": "CampaignCreated",
      "type": "event"
    }
  ],
  "bytecode": "0x6060604052341561000f57600080fd5b33600160006101000a81548173ffffffffffffffffffffffffffffffffffffffff021916908373ffffffffffffffffffffffffffffffffffffffff1602179055506108698061005f6000396000f30060606040526004361061006d576000357c0100000000000000000000000000000000000000000000000000000000900463ffffffff168063141961bc146100725780638da5cb5b14610173578063bfaece09146101c8578063c1cbbca714610261578063ecd8001d14610279575b600080fd5b341561007d57600080fd5b61009360048080359060200190919050506102cf565b604051808673ffffffffffffffffffffffffffffffffffffffff1673ffffffffffffffffffffffffffffffffffffffff168152602001806020018581526020018481526020018381526020018281038252868181546001816001161561010002031660029004815260200191508054600181600116156101000203166002900480156101605780601f1061013557610100808354040283529160200191610160565b820191906000526020600020905b81548152906001019060200180831161014357829003601f168201915b5050965050505050505060405180910390f35b341561017e57600080fd5b610186610324565b604051808273ffffffffffffffffffffffffffffffffffffffff1673ffffffffffffffffffffffffffffffffffffffff16815260200191505060405180910390f35b34156101d357600080fd5b61024b600480803573ffffffffffffffffffffffffffffffffffffffff1690602001909190803590602001909190803590602001908201803590602001908080601f0160208091040260200160405190810160405280939291908181526020018383808284378201915050505050509190505061034a565b6040518082815260200191505060405180910390f35b610277600480803590602001909190505061044f565b005b341561028457600080fd5b6102b9600480803590602001909190803573ffffffffffffffffffffffffffffffffffffffff16906020019091905050610517565b6040518082815260200191505060405180910390f35b60026020528060005260406000206000915090508060000160009054906101000a900473ffffffffffffffffffffffffffffffffffffffff169080600101908060020154908060030154908060040154905085565b600160009054906101000a900473ffffffffffffffffffffffffffffffffffffffff1681565b6000806000808154809291906001019190505591506002600083815260200190815260200160002090507f633109eec20320eded000fc1e2634211aa7e92ba3f5b15faf6dcdafca05094e48233604051808381526020018273ffffffffffffffffffffffffffffffffffffffff1673ffffffffffffffffffffffffffffffffffffffff1681526020019250505060405180910390a1848160000160006101000a81548173ffffffffffffffffffffffffffffffffffffffff021916908373ffffffffffffffffffffffffffffffffffffffff16021790555083816002018190555082816001019080519060200190610443929190610798565b50819150509392505050565b6000806002600084815260200190815260200160002091508160050160008360030160008154809291906001019190505581526020019081526020016000209050816002015434836004015401111515156104a657fe5b338160000160006101000a81548173ffffffffffffffffffffffffffffffffffffffff021916908373ffffffffffffffffffffffffffffffffffffffff16021790555034816001018190555080600101548260040160008282540192505081905550610511836105f4565b50505050565b60008060008060026000878152602001908152602001600020925060009150826003015490505b80821115156105e0578473ffffffffffffffffffffffffffffffffffffffff1683600501600084815260200190815260200160002060000160009054906101000a900473ffffffffffffffffffffffffffffffffffffffff1673ffffffffffffffffffffffffffffffffffffffff1614156105d3578260050160008381526020019081526020016000206001015493506105eb565b818060010192505061053e565b600015156105ea57fe5b5b50505092915050565b6000806000806002600086815260200190815260200160002092508260020154836004015410151561078b5760009150826003015490508260000160009054906101000a900473ffffffffffffffffffffffffffffffffffffffff1673ffffffffffffffffffffffffffffffffffffffff166108fc84600401549081150290604051600060405180830381858888f19350505050151561069357600080fd5b6000836004018190555060008360000160006101000a81548173ffffffffffffffffffffffffffffffffffffffff021916908373ffffffffffffffffffffffffffffffffffffffff16021790555060008360020181905550600083600301819055505b808211151561078257600083600501600084815260200190815260200160002060000160006101000a81548173ffffffffffffffffffffffffffffffffffffffff021916908373ffffffffffffffffffffffffffffffffffffffff16021790555060008360050160008481526020019081526020016000206001018190555081806001019250506106f6565b60019350610790565b600093505b505050919050565b828054600181600116156101000203166002900490600052602060002090601f016020900481019282601f106107d957805160ff1916838001178555610807565b82800160010185558215610807579182015b828111156108065782518255916020019190600101906107eb565b5b5090506108149190610818565b5090565b61083a91905b8082111561083657600081600090555060010161081e565b5090565b905600a165627a7a72305820cd315d10a0a08af6f2afa745ec274529416a94987ff9d1ab3a8507f5bf3e69c40029",
  "source": "pragma solidity ^0.4.11;\r\n\r\n\r\n/* The parent contract managing the list of active brokers and POAToken contracts.\r\n */\r\n\r\n\r\ncontract CrowdFunding {\r\n  \r\n  \r\n  /* Struct  for Funder  */\r\n  struct Funder {\r\n    address addr;\r\n    uint amount;\r\n  }\r\n  // Campaign data structure\r\n  struct Campaign {\r\n    address beneficiary;\r\n    string name;\r\n    uint fundingGoal;\r\n    uint numFunders;\r\n    uint amount;\r\n    mapping (uint => Funder) funders;\r\n  }\r\n  //Declares a state variable 'numCampaigns'\r\n  uint numCampaigns;\r\n  \r\n  address public owner;\r\n  //Creates a mapping of Campaign datatypes\r\n  mapping (uint => Campaign) public campaigns;\r\n  \r\n  event Changed(address a);\r\n  \r\n  event CampaignCreated(uint campaignId, address creator);\r\n  \r\n  function CrowdFunding() public {\r\n    owner = msg.sender;\r\n  }\r\n  \r\n  function getCampaignFunderByAddress(uint campaignId, address funderAddr) public returns (uint amount) {\r\n    Campaign storage c = campaigns[campaignId];\r\n    uint i = 0;\r\n    uint f = c.numFunders;\r\n    while (i <= f) {\r\n      if (c.funders[i].addr == funderAddr) {\r\n        return c.funders[i].amount;\r\n      }\r\n      i++;\r\n    }\r\n    assert(false);\r\n  }\r\n  \r\n  /* first function sets up a new campaign */\r\n  function newCampaign(address beneficiary, uint goal, string name) public returns (uint campaignID) {\r\n    campaignID = numCampaigns++;\r\n    // campaignID is return variable\r\n    Campaign storage c = campaigns[campaignID];\r\n    // assigns reference\r\n    CampaignCreated(campaignID, msg.sender);\r\n    c.beneficiary = beneficiary;\r\n    c.fundingGoal = goal;\r\n    c.name = name;\r\n    return campaignID;\r\n  }\r\n  \r\n  // function to contributes to the campaign\r\n  // Line 1: function is defined as taking a single argument campaignID – it has no return value.\r\n  // Line 2 and 3: Creates references to locations in storage to store a new funder *and* iterates the number of contributors.\r\n  // Line 4,5, and 6: here we take the amount of ether passed with the contributors transaction and the public address of\r\n  // the msg.sender and use it record the contribution from this transactions\r\n  \r\n  function contribute(uint campaignID) public payable {\r\n    Campaign storage c = campaigns[campaignID];\r\n    Funder storage f = c.funders[c.numFunders++];\r\n    assert((c.amount + msg.value) <= c.fundingGoal);\r\n    f.addr = msg.sender;\r\n    f.amount = msg.value;\r\n    c.amount += f.amount;\r\n    checkGoalReached(campaignID);\r\n  }\r\n  // checks if the goal or time limit has been reached and ends the campaign\r\n  function checkGoalReached(uint campaignID) private returns (bool reached) {\r\n    Campaign storage c = campaigns[campaignID];\r\n    if (c.amount >= c.fundingGoal) {\r\n      uint i = 0;\r\n      uint f = c.numFunders;\r\n      c.beneficiary.transfer(c.amount);\r\n      c.amount = 0;\r\n      c.beneficiary = 0;\r\n      c.fundingGoal = 0;\r\n      c.numFunders = 0;\r\n      while (i <= f) {\r\n        c.funders[i].addr = 0;\r\n        c.funders[i].amount = 0;\r\n        i++;\r\n      }\r\n      return true;\r\n    }\r\n    return false;\r\n  }\r\n}",
  "sourcePath": "/Users/janjorissen/Projects/b9labs-eth20/contracts/CrowdFunding.sol",
  "compiler": {
    "name": "solc",
    "version": "0.4.18+commit.9cf6e910.Emscripten.clang"
  },
  "schemaVersion": "1.0.1",
  "updatedAt": "2018-02-01T17:03:22.430Z"
}