{
  "contractName": "CrowdFunding",
  "abi": [
    {
      "constant": true,
      "inputs": [
        {
          "name": "",
          "type": "uint256"
        }
      ],
      "name": "campaigns",
      "outputs": [
        {
          "name": "beneficiary",
          "type": "address"
        },
        {
          "name": "name",
          "type": "string"
        },
        {
          "name": "fundingGoal",
          "type": "uint256"
        },
        {
          "name": "numFunders",
          "type": "uint256"
        },
        {
          "name": "amount",
          "type": "uint256"
        }
      ],
      "payable": false,
      "stateMutability": "view",
      "type": "function"
    },
    {
      "constant": true,
      "inputs": [],
      "name": "owner",
      "outputs": [
        {
          "name": "",
          "type": "address"
        }
      ],
      "payable": false,
      "stateMutability": "view",
      "type": "function"
    },
    {
      "payable": false,
      "stateMutability": "nonpayable",
      "type": "fallback"
    },
    {
      "anonymous": false,
      "inputs": [
        {
          "indexed": false,
          "name": "a",
          "type": "address"
        }
      ],
      "name": "Changed",
      "type": "event"
    },
    {
      "anonymous": false,
      "inputs": [
        {
          "indexed": false,
          "name": "campaignId",
          "type": "uint256"
        },
        {
          "indexed": false,
          "name": "creator",
          "type": "address"
        }
      ],
      "name": "CampaignCreated",
      "type": "event"
    },
    {
      "constant": true,
      "inputs": [
        {
          "name": "campaignId",
          "type": "uint256"
        },
        {
          "name": "funderAddr",
          "type": "address"
        }
      ],
      "name": "getCampaignFunderByAddress",
      "outputs": [
        {
          "name": "amount",
          "type": "uint256"
        }
      ],
      "payable": false,
      "stateMutability": "view",
      "type": "function"
    },
    {
      "constant": false,
      "inputs": [
        {
          "name": "beneficiary",
          "type": "address"
        },
        {
          "name": "goal",
          "type": "uint256"
        },
        {
          "name": "name",
          "type": "string"
        }
      ],
      "name": "newCampaign",
      "outputs": [
        {
          "name": "campaignID",
          "type": "uint256"
        }
      ],
      "payable": false,
      "stateMutability": "nonpayable",
      "type": "function"
    },
    {
      "constant": false,
      "inputs": [
        {
          "name": "campaignID",
          "type": "uint256"
        }
      ],
      "name": "contribute",
      "outputs": [],
      "payable": true,
      "stateMutability": "payable",
      "type": "function"
    }
  ],
  "bytecode": "0x608060405234801561001057600080fd5b50610964806100206000396000f30060806040526004361061006d576000357c0100000000000000000000000000000000000000000000000000000000900463ffffffff168063141961bc146100bd5780638da5cb5b146101ab578063bfaece0914610202578063c1cbbca7146102a9578063ecd8001d146102c9575b34801561007957600080fd5b5033600160006101000a81548173ffffffffffffffffffffffffffffffffffffffff021916908373ffffffffffffffffffffffffffffffffffffffff160217905550005b3480156100c957600080fd5b506100e86004803603810190808035906020019092919050505061032a565b604051808673ffffffffffffffffffffffffffffffffffffffff1673ffffffffffffffffffffffffffffffffffffffff16815260200180602001858152602001848152602001838152602001828103825286818151815260200191508051906020019080838360005b8381101561016c578082015181840152602081019050610151565b50505050905090810190601f1680156101995780820380516001836020036101000a031916815260200191505b50965050505050505060405180910390f35b3480156101b757600080fd5b506101c0610418565b604051808273ffffffffffffffffffffffffffffffffffffffff1673ffffffffffffffffffffffffffffffffffffffff16815260200191505060405180910390f35b34801561020e57600080fd5b50610293600480360381019080803573ffffffffffffffffffffffffffffffffffffffff16906020019092919080359060200190929190803590602001908201803590602001908080601f016020809104026020016040519081016040528093929190818152602001838380828437820191505050505050919291929050505061043e565b6040518082815260200191505060405180910390f35b6102c760048036038101908080359060200190929190505050610543565b005b3480156102d557600080fd5b5061031460048036038101908080359060200190929190803573ffffffffffffffffffffffffffffffffffffffff16906020019092919050505061060b565b6040518082815260200191505060405180910390f35b60026020528060005260406000206000915090508060000160009054906101000a900473ffffffffffffffffffffffffffffffffffffffff1690806001018054600181600116156101000203166002900480601f0160208091040260200160405190810160405280929190818152602001828054600181600116156101000203166002900480156103fc5780601f106103d1576101008083540402835291602001916103fc565b820191906000526020600020905b8154815290600101906020018083116103df57829003601f168201915b5050505050908060020154908060030154908060040154905085565b600160009054906101000a900473ffffffffffffffffffffffffffffffffffffffff1681565b6000806000808154809291906001019190505591506002600083815260200190815260200160002090507f633109eec20320eded000fc1e2634211aa7e92ba3f5b15faf6dcdafca05094e48233604051808381526020018273ffffffffffffffffffffffffffffffffffffffff1673ffffffffffffffffffffffffffffffffffffffff1681526020019250505060405180910390a1848160000160006101000a81548173ffffffffffffffffffffffffffffffffffffffff021916908373ffffffffffffffffffffffffffffffffffffffff16021790555083816002018190555082816001019080519060200190610537929190610893565b50819150509392505050565b60008060026000848152602001908152602001600020915081600501600083600301600081548092919060010191905055815260200190815260200160002090508160020154348360040154011115151561059a57fe5b338160000160006101000a81548173ffffffffffffffffffffffffffffffffffffffff021916908373ffffffffffffffffffffffffffffffffffffffff16021790555034816001018190555080600101548260040160008282540192505081905550610605836106e8565b50505050565b60008060008060026000878152602001908152602001600020925060009150826003015490505b80821115156106d4578473ffffffffffffffffffffffffffffffffffffffff1683600501600084815260200190815260200160002060000160009054906101000a900473ffffffffffffffffffffffffffffffffffffffff1673ffffffffffffffffffffffffffffffffffffffff1614156106c7578260050160008381526020019081526020016000206001015493506106df565b8180600101925050610632565b600015156106de57fe5b5b50505092915050565b600080600080600260008681526020019081526020016000209250826002015483600401541015156108865760009150826003015490508260000160009054906101000a900473ffffffffffffffffffffffffffffffffffffffff1673ffffffffffffffffffffffffffffffffffffffff166108fc84600401549081150290604051600060405180830381858888f1935050505015801561078d573d6000803e3d6000fd5b506000836004018190555060008360000160006101000a81548173ffffffffffffffffffffffffffffffffffffffff021916908373ffffffffffffffffffffffffffffffffffffffff16021790555060008360020181905550600083600301819055505b808211151561087d57600083600501600084815260200190815260200160002060000160006101000a81548173ffffffffffffffffffffffffffffffffffffffff021916908373ffffffffffffffffffffffffffffffffffffffff16021790555060008360050160008481526020019081526020016000206001018190555081806001019250506107f1565b6001935061088b565b600093505b505050919050565b828054600181600116156101000203166002900490600052602060002090601f016020900481019282601f106108d457805160ff1916838001178555610902565b82800160010185558215610902579182015b828111156109015782518255916020019190600101906108e6565b5b50905061090f9190610913565b5090565b61093591905b80821115610931576000816000905550600101610919565b5090565b905600a165627a7a72305820e2004c032fb8faeaba6d286ac4a65da30e04ee0037d4e585b4a7713a9a33fb430029",
  "source": "pragma solidity ^0.4.24;\r\n\r\n\r\n/* The parent contract managing the list of active brokers and POAToken contracts.\r\n */\r\n\r\n\r\ncontract CrowdFunding {\r\n\r\n\r\n  /* Struct  for Funder  */\r\n  struct Funder {\r\n    address addr;\r\n    uint amount;\r\n  }\r\n  // Campaign data structure\r\n  struct Campaign {\r\n    address beneficiary;\r\n    string name;\r\n    uint fundingGoal;\r\n    uint numFunders;\r\n    uint amount;\r\n    mapping (uint => Funder) funders;\r\n  }\r\n  //Declares a state variable 'numCampaigns'\r\n  uint numCampaigns;\r\n\r\n  address public owner;\r\n  //Creates a mapping of Campaign datatypes\r\n  mapping (uint => Campaign) public campaigns;\r\n\r\n  event Changed(address a);\r\n\r\n  event CampaignCreated(uint campaignId, address creator);\r\n\r\n  function () public {\r\n    owner = msg.sender;\r\n  }\r\n\r\n  function getCampaignFunderByAddress(uint campaignId, address funderAddr)\r\n  view\r\n  public returns (uint amount) {\r\n    Campaign storage c = campaigns[campaignId];\r\n    uint i = 0;\r\n    uint f = c.numFunders;\r\n    while (i <= f) {\r\n      if (c.funders[i].addr == funderAddr) {\r\n        return c.funders[i].amount;\r\n      }\r\n      i++;\r\n    }\r\n    assert(false);\r\n  }\r\n\r\n  /* first function sets up a new campaign */\r\n  function newCampaign(address beneficiary, uint goal, string name) public returns (uint campaignID) {\r\n    campaignID = numCampaigns++;\r\n    // campaignID is return variable\r\n    Campaign storage c = campaigns[campaignID];\r\n    // assigns reference\r\n    emit CampaignCreated(campaignID, msg.sender);\r\n    c.beneficiary = beneficiary;\r\n    c.fundingGoal = goal;\r\n    c.name = name;\r\n    return campaignID;\r\n  }\r\n\r\n  // function to contributes to the campaign\r\n  // Line 1: function is defined as taking a single argument campaignID – it has no return value.\r\n  // Line 2 and 3: Creates references to locations in storage to store a new funder *and* iterates the number of contributors.\r\n  // Line 4,5, and 6: here we take the amount of ether passed with the contributors transaction and the public address of\r\n  // the msg.sender and use it record the contribution from this transactions\r\n\r\n  function contribute(uint campaignID) public payable {\r\n    Campaign storage c = campaigns[campaignID];\r\n    Funder storage f = c.funders[c.numFunders++];\r\n    assert((c.amount + msg.value) <= c.fundingGoal);\r\n    f.addr = msg.sender;\r\n    f.amount = msg.value;\r\n    c.amount += f.amount;\r\n    checkGoalReached(campaignID);\r\n  }\r\n  // checks if the goal or time limit has been reached and ends the campaign\r\n  function checkGoalReached(uint campaignID) private returns (bool reached) {\r\n    Campaign storage c = campaigns[campaignID];\r\n    if (c.amount >= c.fundingGoal) {\r\n      uint i = 0;\r\n      uint f = c.numFunders;\r\n      c.beneficiary.transfer(c.amount);\r\n      c.amount = 0;\r\n      c.beneficiary = 0;\r\n      c.fundingGoal = 0;\r\n      c.numFunders = 0;\r\n      while (i <= f) {\r\n        c.funders[i].addr = 0;\r\n        c.funders[i].amount = 0;\r\n        i++;\r\n      }\r\n      return true;\r\n    }\r\n    return false;\r\n  }\r\n}",
  "sourcePath": "/Users/janjorissen/Projects/b9labs-eth20/contracts/CrowdFunding.sol",
  "compiler": {
    "name": "solc",
    "version": "0.4.24+commit.e67f0147.Emscripten.clang"
  },
  "schemaVersion": "2.0.0",
  "updatedAt": "2019-05-24T09:53:27.433Z"
}