{
  "contractName": "Remittance",
  "abi": [
    {
      "constant": true,
      "inputs": [],
      "name": "bankroll",
      "outputs": [
        {
          "name": "",
          "type": "uint256"
        }
      ],
      "payable": false,
      "stateMutability": "view",
      "type": "function"
    },
    {
      "constant": true,
      "inputs": [],
      "name": "maxDeadlineHeight",
      "outputs": [
        {
          "name": "",
          "type": "uint256"
        }
      ],
      "payable": false,
      "stateMutability": "view",
      "type": "function"
    },
    {
      "constant": false,
      "inputs": [
        {
          "name": "_new",
          "type": "address"
        }
      ],
      "name": "setOwner",
      "outputs": [],
      "payable": false,
      "stateMutability": "nonpayable",
      "type": "function"
    },
    {
      "constant": true,
      "inputs": [],
      "name": "owner",
      "outputs": [
        {
          "name": "",
          "type": "address"
        }
      ],
      "payable": false,
      "stateMutability": "view",
      "type": "function"
    },
    {
      "constant": true,
      "inputs": [
        {
          "name": "",
          "type": "bytes32"
        }
      ],
      "name": "remittances",
      "outputs": [
        {
          "name": "owner",
          "type": "address"
        },
        {
          "name": "passphrase",
          "type": "bytes32"
        },
        {
          "name": "amount",
          "type": "uint256"
        },
        {
          "name": "deadlineBlock",
          "type": "uint256"
        }
      ],
      "payable": false,
      "stateMutability": "view",
      "type": "function"
    },
    {
      "payable": false,
      "stateMutability": "nonpayable",
      "type": "fallback"
    },
    {
      "anonymous": false,
      "inputs": [
        {
          "indexed": false,
          "name": "claimer",
          "type": "address"
        },
        {
          "indexed": false,
          "name": "instanceId",
          "type": "bytes32"
        },
        {
          "indexed": false,
          "name": "amount",
          "type": "uint256"
        }
      ],
      "name": "LogRemittanceClaimed",
      "type": "event"
    },
    {
      "anonymous": false,
      "inputs": [
        {
          "indexed": false,
          "name": "owner",
          "type": "address"
        },
        {
          "indexed": false,
          "name": "amount",
          "type": "uint256"
        },
        {
          "indexed": false,
          "name": "instanceId",
          "type": "bytes32"
        },
        {
          "indexed": false,
          "name": "fee",
          "type": "uint256"
        }
      ],
      "name": "LogRemittanceCreated",
      "type": "event"
    },
    {
      "anonymous": false,
      "inputs": [
        {
          "indexed": false,
          "name": "remittanceInstanceOwner",
          "type": "address"
        },
        {
          "indexed": false,
          "name": "instanceId",
          "type": "bytes32"
        }
      ],
      "name": "LogRemittanceCancelled",
      "type": "event"
    },
    {
      "anonymous": false,
      "inputs": [
        {
          "indexed": false,
          "name": "receiver",
          "type": "address"
        },
        {
          "indexed": false,
          "name": "amount",
          "type": "uint256"
        }
      ],
      "name": "LogKillswitch",
      "type": "event"
    },
    {
      "anonymous": false,
      "inputs": [
        {
          "indexed": false,
          "name": "sender",
          "type": "address"
        },
        {
          "indexed": false,
          "name": "paused",
          "type": "bool"
        }
      ],
      "name": "LogPaused",
      "type": "event"
    },
    {
      "anonymous": false,
      "inputs": [
        {
          "indexed": true,
          "name": "old",
          "type": "address"
        },
        {
          "indexed": true,
          "name": "current",
          "type": "address"
        }
      ],
      "name": "LogNewOwner",
      "type": "event"
    },
    {
      "constant": false,
      "inputs": [
        {
          "name": "identifier",
          "type": "bytes32"
        },
        {
          "name": "password",
          "type": "bytes"
        }
      ],
      "name": "claimFunds",
      "outputs": [],
      "payable": false,
      "stateMutability": "nonpayable",
      "type": "function"
    },
    {
      "constant": false,
      "inputs": [
        {
          "name": "identifier",
          "type": "bytes32"
        }
      ],
      "name": "cancelProject",
      "outputs": [],
      "payable": false,
      "stateMutability": "nonpayable",
      "type": "function"
    },
    {
      "constant": false,
      "inputs": [
        {
          "name": "passphrase",
          "type": "bytes32"
        },
        {
          "name": "claimer",
          "type": "address"
        },
        {
          "name": "deadlineBlock",
          "type": "uint256"
        }
      ],
      "name": "newProject",
      "outputs": [
        {
          "name": "identifier",
          "type": "bytes32"
        }
      ],
      "payable": true,
      "stateMutability": "payable",
      "type": "function"
    },
    {
      "constant": false,
      "inputs": [
        {
          "name": "emergencyExit",
          "type": "address"
        }
      ],
      "name": "panicButton",
      "outputs": [],
      "payable": false,
      "stateMutability": "nonpayable",
      "type": "function"
    },
    {
      "constant": false,
      "inputs": [],
      "name": "takeProfits",
      "outputs": [],
      "payable": false,
      "stateMutability": "nonpayable",
      "type": "function"
    },
    {
      "constant": false,
      "inputs": [
        {
          "name": "value",
          "type": "bool"
        }
      ],
      "name": "setPaused",
      "outputs": [
        {
          "name": "isPaused",
          "type": "bool"
        }
      ],
      "payable": false,
      "stateMutability": "nonpayable",
      "type": "function"
    },
    {
      "constant": true,
      "inputs": [],
      "name": "blockHeight",
      "outputs": [
        {
          "name": "blockheight",
          "type": "uint256"
        }
      ],
      "payable": false,
      "stateMutability": "view",
      "type": "function"
    },
    {
      "constant": true,
      "inputs": [],
      "name": "gasPrice",
      "outputs": [
        {
          "name": "gasprice",
          "type": "uint256"
        }
      ],
      "payable": false,
      "stateMutability": "view",
      "type": "function"
    },
    {
      "constant": true,
      "inputs": [
        {
          "name": "password",
          "type": "bytes"
        }
      ],
      "name": "hashPassword",
      "outputs": [
        {
          "name": "hash",
          "type": "bytes32"
        }
      ],
      "payable": false,
      "stateMutability": "pure",
      "type": "function"
    }
  ],
  "bytecode": "0x6080604052621e84806002556103e860035534801561001d57600080fd5b506113c28061002d6000396000f3006080604052600436106100d0576000357c0100000000000000000000000000000000000000000000000000000000900463ffffffff1680630c657eb01461011f5780630e43e1ad1461014a5780630f1af4391461017557806313af4035146101a657806316c38b3c146101e957806317480ae6146102305780631bc1b6cf146102a757806323e77db3146103115780638da5cb5b146103285780639c922d2a1461037f578063b808e29d1461040d578063e04527ee14610492578063f44ff712146104d5578063fe173b9714610500575b3480156100dc57600080fd5b50336000806101000a81548173ffffffffffffffffffffffffffffffffffffffff021916908373ffffffffffffffffffffffffffffffffffffffff160217905550005b34801561012b57600080fd5b5061013461052b565b6040518082815260200191505060405180910390f35b34801561015657600080fd5b5061015f610531565b6040518082815260200191505060405180910390f35b34801561018157600080fd5b506101a46004803603810190808035600019169060200190929190505050610537565b005b3480156101b257600080fd5b506101e7600480360381019080803573ffffffffffffffffffffffffffffffffffffffff1690602001909291905050506106d8565b005b3480156101f557600080fd5b50610216600480360381019080803515159060200190929190505050610889565b604051808215151515815260200191505060405180910390f35b34801561023c57600080fd5b506102a56004803603810190808035600019169060200190929190803590602001908201803590602001908080601f01602080910402602001604051908101604052809392919081815260200183838082843782019150505050505091929192905050506109b7565b005b6102f36004803603810190808035600019169060200190929190803573ffffffffffffffffffffffffffffffffffffffff16906020019092919080359060200190929190505050610c2c565b60405180826000191660001916815260200191505060405180910390f35b34801561031d57600080fd5b50610326610ecf565b005b34801561033457600080fd5b5061033d610fff565b604051808273ffffffffffffffffffffffffffffffffffffffff1673ffffffffffffffffffffffffffffffffffffffff16815260200191505060405180910390f35b34801561038b57600080fd5b506103ae6004803603810190808035600019169060200190929190505050611024565b604051808573ffffffffffffffffffffffffffffffffffffffff1673ffffffffffffffffffffffffffffffffffffffff168152602001846000191660001916815260200183815260200182815260200194505050505060405180910390f35b34801561041957600080fd5b50610474600480360381019080803590602001908201803590602001908080601f0160208091040260200160405190810160405280939291908181526020018383808284378201915050505050509192919290505050611074565b60405180826000191660001916815260200191505060405180910390f35b34801561049e57600080fd5b506104d3600480360381019080803573ffffffffffffffffffffffffffffffffffffffff1690602001909291905050506110e0565b005b3480156104e157600080fd5b506104ea61133a565b6040518082815260200191505060405180910390f35b34801561050c57600080fd5b50610515611347565b6040518082815260200191505060405180910390f35b60045481565b60035481565b600080600560009054906101000a900460ff1615151561055657600080fd5b60016000846000191660001916815260200190815260200160002091503373ffffffffffffffffffffffffffffffffffffffff168260000160009054906101000a900473ffffffffffffffffffffffffffffffffffffffff1673ffffffffffffffffffffffffffffffffffffffff161415156105d157600080fd5b438260030154101515156105e457600080fd5b7fb08819610fc1e43f5f00e490e3dc734227566ca4b6c95dbb8c0b5f1a554e7b908260000160009054906101000a900473ffffffffffffffffffffffffffffffffffffffff1684604051808373ffffffffffffffffffffffffffffffffffffffff1673ffffffffffffffffffffffffffffffffffffffff16815260200182600019166000191681526020019250505060405180910390a181600201549050600082600201819055503373ffffffffffffffffffffffffffffffffffffffff166108fc829081150290604051600060405180830381858888f193505050501580156106d2573d6000803e3d6000fd5b50505050565b6000809054906101000a900473ffffffffffffffffffffffffffffffffffffffff1673ffffffffffffffffffffffffffffffffffffffff163373ffffffffffffffffffffffffffffffffffffffff1614151561073357600080fd5b6000809054906101000a900473ffffffffffffffffffffffffffffffffffffffff1673ffffffffffffffffffffffffffffffffffffffff168173ffffffffffffffffffffffffffffffffffffffff161415151561078f57600080fd5b600073ffffffffffffffffffffffffffffffffffffffff168173ffffffffffffffffffffffffffffffffffffffff16141515156107cb57600080fd5b8073ffffffffffffffffffffffffffffffffffffffff166000809054906101000a900473ffffffffffffffffffffffffffffffffffffffff1673ffffffffffffffffffffffffffffffffffffffff167f1f8d7d25344642d919d55999e4664aa452a5f424bc0936ceb9c2b300db7dcbd960405160405180910390a3806000806101000a81548173ffffffffffffffffffffffffffffffffffffffff021916908373ffffffffffffffffffffffffffffffffffffffff16021790555050565b60008060009054906101000a900473ffffffffffffffffffffffffffffffffffffffff1673ffffffffffffffffffffffffffffffffffffffff163373ffffffffffffffffffffffffffffffffffffffff161415156108e657600080fd5b600560009054906101000a900460ff1615158215151415151561090857600080fd5b81600560006101000a81548160ff0219169083151502179055507f9885b484a3068de5c38fb9073ed8489371efc9514b9a174a9cd1df5326d2e45433600560009054906101000a900460ff16604051808373ffffffffffffffffffffffffffffffffffffffff1673ffffffffffffffffffffffffffffffffffffffff168152602001821515151581526020019250505060405180910390a1600560009054906101000a900460ff169050919050565b600080600560009054906101000a900460ff161515156109d657600080fd5b60016000856000191660001916815260200190815260200160002091506000826002015414151515610a0757600080fd5b33836040518082805190602001908083835b602083101515610a3e5780518252602082019150602081019050602083039250610a19565b6001836020036101000a0380198251168184511680821785525050505050509050019150506040518091039020604051602001808373ffffffffffffffffffffffffffffffffffffffff1673ffffffffffffffffffffffffffffffffffffffff166c010000000000000000000000000281526014018260001916600019168152602001925050506040516020818303038152906040526040518082805190602001908083835b602083101515610b095780518252602082019150602081019050602083039250610ae4565b6001836020036101000a038019825116818451168082178552505050505050905001915050604051809103902060001916826001015460001916141515610b4f57600080fd5b7fc8a735941d66d6d350c5df6a15a3fc166fffad4ffab063443d3bbb0d4deb822933858460020154604051808473ffffffffffffffffffffffffffffffffffffffff1673ffffffffffffffffffffffffffffffffffffffff1681526020018360001916600019168152602001828152602001935050505060405180910390a181600201549050600082600201819055503373ffffffffffffffffffffffffffffffffffffffff166108fc829081150290604051600060405180830381858888f19350505050158015610c25573d6000803e3d6000fd5b5050505050565b600080600080610c3a611354565b600560009054906101000a900460ff16151515610c5657600080fd5b600354438703101515610c6857600080fd5b600034111515610c7757600080fd5b8688604051602001808373ffffffffffffffffffffffffffffffffffffffff1673ffffffffffffffffffffffffffffffffffffffff166c010000000000000000000000000281526014018260001916600019168152602001925050506040516020818303038152906040526040518082805190602001908083835b602083101515610d175780518252602082019150602081019050602083039250610cf2565b6001836020036101000a03801982511681845116808217855250505050505090500191505060405180910390209350600254620f42403a02029250826004600082825401925050819055508234039150600082111515610d7657600080fd5b6080604051908101604052803373ffffffffffffffffffffffffffffffffffffffff1681526020018560001916815260200183815260200187815250905080600160008a6000191660001916815260200190815260200160002060008201518160000160006101000a81548173ffffffffffffffffffffffffffffffffffffffff021916908373ffffffffffffffffffffffffffffffffffffffff1602179055506020820151816001019060001916905560408201518160020155606082015181600301559050507fbfb3edbbf2a07411cb81953ef7f010f4f2f89471b6139b9988f67c77975035d533838a86604051808573ffffffffffffffffffffffffffffffffffffffff1673ffffffffffffffffffffffffffffffffffffffff168152602001848152602001836000191660001916815260200182815260200194505050505060405180910390a1879450505050509392505050565b60008060009054906101000a900473ffffffffffffffffffffffffffffffffffffffff1673ffffffffffffffffffffffffffffffffffffffff163373ffffffffffffffffffffffffffffffffffffffff16141515610f2c57600080fd5b6000809054906101000a900473ffffffffffffffffffffffffffffffffffffffff1673ffffffffffffffffffffffffffffffffffffffff163373ffffffffffffffffffffffffffffffffffffffff16141515610f8757600080fd5b600454905060006004819055506000809054906101000a900473ffffffffffffffffffffffffffffffffffffffff1673ffffffffffffffffffffffffffffffffffffffff166108fc829081150290604051600060405180830381858888f19350505050158015610ffb573d6000803e3d6000fd5b5050565b6000809054906101000a900473ffffffffffffffffffffffffffffffffffffffff1681565b60016020528060005260406000206000915090508060000160009054906101000a900473ffffffffffffffffffffffffffffffffffffffff16908060010154908060020154908060030154905084565b6000816040518082805190602001908083835b6020831015156110ac5780518252602082019150602081019050602083039250611087565b6001836020036101000a03801982511681845116808217855250505050505090500191505060405180910390209050919050565b6000809054906101000a900473ffffffffffffffffffffffffffffffffffffffff1673ffffffffffffffffffffffffffffffffffffffff163373ffffffffffffffffffffffffffffffffffffffff1614151561113b57600080fd5b600073ffffffffffffffffffffffffffffffffffffffff168173ffffffffffffffffffffffffffffffffffffffff16141515611256577fbfbc8869a456fb3f83a6d2cbe5d2315d71106320e79e474f4564637cf4035c52813073ffffffffffffffffffffffffffffffffffffffff1631604051808373ffffffffffffffffffffffffffffffffffffffff1673ffffffffffffffffffffffffffffffffffffffff1681526020018281526020019250505060405180910390a18073ffffffffffffffffffffffffffffffffffffffff166108fc3073ffffffffffffffffffffffffffffffffffffffff16319081150290604051600060405180830381858888f19350505050158015611250573d6000803e3d6000fd5b50611337565b7fbfbc8869a456fb3f83a6d2cbe5d2315d71106320e79e474f4564637cf4035c52333073ffffffffffffffffffffffffffffffffffffffff1631604051808373ffffffffffffffffffffffffffffffffffffffff1673ffffffffffffffffffffffffffffffffffffffff1681526020018281526020019250505060405180910390a13373ffffffffffffffffffffffffffffffffffffffff166108fc3073ffffffffffffffffffffffffffffffffffffffff16319081150290604051600060405180830381858888f19350505050158015611335573d6000803e3d6000fd5b505b50565b6000804390508091505090565b6000620f42403a02905090565b608060405190810160405280600073ffffffffffffffffffffffffffffffffffffffff16815260200160008019168152602001600081526020016000815250905600a165627a7a72305820215751310ba75937fc14ff32cdfad4fcd25f6902b6a71f8089fe018eda6ff67e0029",
  "source": "pragma solidity 0.4.24;\n\nimport './Ownable.sol';\n\ncontract Remittance is Ownable {\n\n  event LogRemittanceClaimed(address claimer, bytes32 instanceId, uint amount);\n  event LogRemittanceCreated(address owner, uint amount, bytes32 instanceId, uint fee);\n  event LogRemittanceCancelled(address remittanceInstanceOwner, bytes32 instanceId);\n  event LogKillswitch(address receiver, uint amount);\n  event LogPaused(address sender, bool paused);\n\n  mapping (bytes32 => RemittanceInstance) public remittances;\n\n  // Current estimate of contract creation cost\n  uint contractCreationGasCost = 2000000;\n  // Maximum amount of blocks after which remittance owner can withdraw\n  uint public maxDeadlineHeight = 1000;\n  // Profit ready for withdrawal\n  uint public bankroll;\n\n  bool paused;\n  modifier pausable{\n    require(!paused);\n    _;\n  }\n\n  struct RemittanceInstance {\n    address owner;\n    bytes32 passphrase; // Hashed password_one\n    uint amount; // Amount of eth\n    uint deadlineBlock; //  BlockHeight after which amount is reclaimable\n  }\n\n  function () public {\n    owner = msg.sender;\n  }\n\n  // Person B can then claim the funds with both passwords\n  function claimFunds(bytes32 identifier, bytes password)\n  pausable\n  public\n  {\n    // Get the remittanceInstance from our mapping by name\n    RemittanceInstance storage instance = remittances[identifier];\n    // Make sure there is a instance under that name AND that there is still money to be sent\n    require(instance.amount != 0);\n    // We need the second hashed password to match plus the senders address\n    require(instance.passphrase == keccak256(\n      abi.encodePacked(msg.sender,keccak256(password))\n    )\n    );\n\n    emit LogRemittanceClaimed(msg.sender, identifier, instance.amount);\n    // Save the amount to be sent in a seperate variable\n    uint amountToSend = instance.amount;\n    // Clear the instance amount\n    instance.amount = 0;\n    // Finally, transfer the amount to the person claiming it\n    msg.sender.transfer(amountToSend);\n  }\n\n  // Owner of a project can cancel the remittance up until a certain point\n  function cancelProject(bytes32 identifier)\n  public\n  pausable\n  {\n    // Get the instance from our mapping by name\n    RemittanceInstance storage instance = remittances[identifier];\n    require(instance.owner == msg.sender);\n    // After the deadline block, owner can claim funds\n    require(instance.deadlineBlock >= block.number);\n    emit LogRemittanceCancelled(instance.owner, identifier);\n    // Save the amount to be sent in a seperate variable\n    uint amountToSend = instance.amount;\n    // Clear the instance amount\n    instance.amount = 0;\n    // Finally, transfer the amount to the owner\n    msg.sender.transfer(amountToSend);\n  }\n\n  // Create a new Remittance project\n  function newProject(bytes32 passphrase,  address claimer, uint deadlineBlock)\n  public\n  pausable\n  payable\n  returns (bytes32 identifier)\n  {\n    // Deadline can't be further away than the max Deadline BlockHeight\n    require((deadlineBlock - block.number) < maxDeadlineHeight);\n    // There needs to be something to remit\n    require(msg.value > 0);\n    // Create new Project struct\n    bytes32 finalHash = keccak256(abi.encodePacked(claimer,passphrase));\n    // Calculate current fee based on gasprice\n    uint fee = tx.gasprice * 1000000 * contractCreationGasCost;\n    // Add fee to the bankroll\n    bankroll += fee;\n    // Gotta pay taxes\n    uint amountToSend = msg.value - fee;\n    require(amountToSend > 0);\n\n    RemittanceInstance memory remittanceInstance =\n    RemittanceInstance(\n      {owner: msg.sender,\n      passphrase: finalHash,\n      amount: amountToSend,\n      deadlineBlock: deadlineBlock\n      });\n\n    remittances[passphrase] = remittanceInstance;\n    emit LogRemittanceCreated(msg.sender, amountToSend, passphrase, fee);\n    return passphrase;\n  }\n\n  // Emergency function to drain all funds from the contract and pauses it\n  function panicButton(address emergencyExit)\n  public\n  only_owner\n  {\n    if(emergencyExit != address(0))\n    {\n      emit LogKillswitch(emergencyExit, address(this).balance);\n      emergencyExit.transfer(address(this).balance);\n    }else{\n      emit LogKillswitch(msg.sender, address(this).balance);\n      msg.sender.transfer(address(this).balance);\n    }\n  }\n\n  // Drain the bankroll\n  function takeProfits()\n  only_owner\n  public\n  {\n    require(msg.sender == owner);\n    uint toSend = bankroll;\n    bankroll = 0;\n    owner.transfer(toSend);\n  }\n\n  function setPaused(bool value)\n  only_owner\n  public\n  returns (bool isPaused)\n  {\n    require(value != paused);\n    paused = value;\n    emit LogPaused(msg.sender, paused);\n    return paused;\n  }\n\n  // Helper functions\n\n  function blockHeight()\n  public\n  view\n  returns(uint blockheight)\n  {\n    uint height = block.number;\n    return height;\n  }\n\n  function gasPrice()\n  public\n  view\n  returns(uint gasprice)\n  {\n    return (tx.gasprice * 1000000);\n  }\n\n  function hashPassword(bytes password)\n  public\n  pure\n  returns(bytes32 hash)\n  {\n    return keccak256(password);\n  }\n\n}",
  "sourcePath": "/Users/janjorissen/Projects/b9labs-eth20/contracts/Remittance.sol",
  "compiler": {
    "name": "solc",
    "version": "0.4.24+commit.e67f0147.Emscripten.clang"
  },
  "schemaVersion": "2.0.0",
  "updatedAt": "2018-07-08T12:33:55.455Z"
}