{
  "contractName": "Remittance",
  "abi": [
    {
      "constant": true,
      "inputs": [],
      "name": "bankroll",
      "outputs": [
        {
          "name": "",
          "type": "uint256"
        }
      ],
      "payable": false,
      "stateMutability": "view",
      "type": "function"
    },
    {
      "constant": true,
      "inputs": [],
      "name": "maxDeadlineHeight",
      "outputs": [
        {
          "name": "",
          "type": "uint256"
        }
      ],
      "payable": false,
      "stateMutability": "view",
      "type": "function"
    },
    {
      "constant": false,
      "inputs": [
        {
          "name": "identifier",
          "type": "bytes32"
        }
      ],
      "name": "cancelProject",
      "outputs": [],
      "payable": false,
      "stateMutability": "nonpayable",
      "type": "function"
    },
    {
      "constant": false,
      "inputs": [
        {
          "name": "value",
          "type": "bool"
        }
      ],
      "name": "setPaused",
      "outputs": [
        {
          "name": "isPaused",
          "type": "bool"
        }
      ],
      "payable": false,
      "stateMutability": "nonpayable",
      "type": "function"
    },
    {
      "constant": false,
      "inputs": [
        {
          "name": "passphrase",
          "type": "bytes32"
        },
        {
          "name": "claimer",
          "type": "address"
        },
        {
          "name": "deadlineBlock",
          "type": "uint256"
        }
      ],
      "name": "newProject",
      "outputs": [
        {
          "name": "identifier",
          "type": "bytes32"
        }
      ],
      "payable": true,
      "stateMutability": "payable",
      "type": "function"
    },
    {
      "constant": false,
      "inputs": [],
      "name": "takeProfits",
      "outputs": [],
      "payable": false,
      "stateMutability": "nonpayable",
      "type": "function"
    },
    {
      "constant": false,
      "inputs": [
        {
          "name": "identifier",
          "type": "bytes32"
        },
        {
          "name": "password",
          "type": "string"
        }
      ],
      "name": "claimFunds",
      "outputs": [],
      "payable": false,
      "stateMutability": "nonpayable",
      "type": "function"
    },
    {
      "constant": true,
      "inputs": [],
      "name": "owner",
      "outputs": [
        {
          "name": "",
          "type": "address"
        }
      ],
      "payable": false,
      "stateMutability": "view",
      "type": "function"
    },
    {
      "constant": true,
      "inputs": [
        {
          "name": "password",
          "type": "bytes32"
        }
      ],
      "name": "hashPassword",
      "outputs": [
        {
          "name": "hash",
          "type": "bytes32"
        }
      ],
      "payable": false,
      "stateMutability": "pure",
      "type": "function"
    },
    {
      "constant": true,
      "inputs": [
        {
          "name": "",
          "type": "bytes32"
        }
      ],
      "name": "remittances",
      "outputs": [
        {
          "name": "owner",
          "type": "address"
        },
        {
          "name": "passphrase",
          "type": "bytes32"
        },
        {
          "name": "amount",
          "type": "uint256"
        },
        {
          "name": "deadlineBlock",
          "type": "uint256"
        }
      ],
      "payable": false,
      "stateMutability": "view",
      "type": "function"
    },
    {
      "constant": false,
      "inputs": [
        {
          "name": "emergencyExit",
          "type": "address"
        }
      ],
      "name": "panicButton",
      "outputs": [],
      "payable": false,
      "stateMutability": "nonpayable",
      "type": "function"
    },
    {
      "constant": false,
      "inputs": [
        {
          "name": "newOwner",
          "type": "address"
        }
      ],
      "name": "transferOwnership",
      "outputs": [],
      "payable": false,
      "stateMutability": "nonpayable",
      "type": "function"
    },
    {
      "constant": true,
      "inputs": [],
      "name": "blockHeight",
      "outputs": [
        {
          "name": "blockheight",
          "type": "uint256"
        }
      ],
      "payable": false,
      "stateMutability": "view",
      "type": "function"
    },
    {
      "constant": true,
      "inputs": [],
      "name": "gasPrice",
      "outputs": [
        {
          "name": "gasprice",
          "type": "uint256"
        }
      ],
      "payable": false,
      "stateMutability": "view",
      "type": "function"
    },
    {
      "inputs": [],
      "payable": false,
      "stateMutability": "nonpayable",
      "type": "constructor"
    },
    {
      "anonymous": false,
      "inputs": [
        {
          "indexed": false,
          "name": "claimer",
          "type": "address"
        },
        {
          "indexed": false,
          "name": "instanceId",
          "type": "bytes32"
        },
        {
          "indexed": false,
          "name": "amount",
          "type": "uint256"
        }
      ],
      "name": "LogRemittanceClaimed",
      "type": "event"
    },
    {
      "anonymous": false,
      "inputs": [
        {
          "indexed": false,
          "name": "owner",
          "type": "address"
        },
        {
          "indexed": false,
          "name": "amount",
          "type": "uint256"
        },
        {
          "indexed": false,
          "name": "instanceId",
          "type": "bytes32"
        },
        {
          "indexed": false,
          "name": "fee",
          "type": "uint256"
        }
      ],
      "name": "LogRemittanceCreated",
      "type": "event"
    },
    {
      "anonymous": false,
      "inputs": [
        {
          "indexed": false,
          "name": "remittanceInstanceOwner",
          "type": "address"
        },
        {
          "indexed": false,
          "name": "instanceId",
          "type": "bytes32"
        }
      ],
      "name": "LogRemittanceCancelled",
      "type": "event"
    },
    {
      "anonymous": false,
      "inputs": [
        {
          "indexed": false,
          "name": "receiver",
          "type": "address"
        },
        {
          "indexed": false,
          "name": "amount",
          "type": "uint256"
        }
      ],
      "name": "LogKillswitch",
      "type": "event"
    },
    {
      "anonymous": false,
      "inputs": [
        {
          "indexed": false,
          "name": "sender",
          "type": "address"
        },
        {
          "indexed": false,
          "name": "paused",
          "type": "bool"
        }
      ],
      "name": "LogPaused",
      "type": "event"
    },
    {
      "anonymous": false,
      "inputs": [
        {
          "indexed": true,
          "name": "previousOwner",
          "type": "address"
        },
        {
          "indexed": true,
          "name": "newOwner",
          "type": "address"
        }
      ],
      "name": "OwnershipTransferred",
      "type": "event"
    }
  ],
  "bytecode": "0x6060604052621e84806002556103e8600355341561001c57600080fd5b336000806101000a81548173ffffffffffffffffffffffffffffffffffffffff021916908373ffffffffffffffffffffffffffffffffffffffff160217905550336000806101000a81548173ffffffffffffffffffffffffffffffffffffffff021916908373ffffffffffffffffffffffffffffffffffffffff160217905550611145806100ab6000396000f3006060604052600436106100d0576000357c0100000000000000000000000000000000000000000000000000000000900463ffffffff1680630c657eb0146100d55780630e43e1ad146100fe5780630f1af4391461012757806316c38b3c1461014e5780631bc1b6cf1461018b57806323e77db3146101eb5780635a266544146102005780638da5cb5b1461026a578063900d148f146102bf5780639c922d2a14610302578063e04527ee14610386578063f2fde38b146103bf578063f44ff712146103f8578063fe173b9714610421575b600080fd5b34156100e057600080fd5b6100e861044a565b6040518082815260200191505060405180910390f35b341561010957600080fd5b610111610450565b6040518082815260200191505060405180910390f35b341561013257600080fd5b61014c600480803560001916906020019091905050610456565b005b341561015957600080fd5b610171600480803515159060200190919050506105f0565b604051808215151515815260200191505060405180910390f35b6101cd60048080356000191690602001909190803573ffffffffffffffffffffffffffffffffffffffff1690602001909190803590602001909190505061071e565b60405180826000191660001916815260200191505060405180910390f35b34156101f657600080fd5b6101fe610955565b005b341561020b57600080fd5b61026860048080356000191690602001909190803590602001908201803590602001908080601f01602080910402602001604051908101604052809392919081815260200183838082843782019150505050505091905050610a7e565b005b341561027557600080fd5b61027d610c80565b604051808273ffffffffffffffffffffffffffffffffffffffff1673ffffffffffffffffffffffffffffffffffffffff16815260200191505060405180910390f35b34156102ca57600080fd5b6102e4600480803560001916906020019091905050610ca5565b60405180826000191660001916815260200191505060405180910390f35b341561030d57600080fd5b610327600480803560001916906020019091905050610ccc565b604051808573ffffffffffffffffffffffffffffffffffffffff1673ffffffffffffffffffffffffffffffffffffffff168152602001846000191660001916815260200183815260200182815260200194505050505060405180910390f35b341561039157600080fd5b6103bd600480803573ffffffffffffffffffffffffffffffffffffffff16906020019091905050610d1c565b005b34156103ca57600080fd5b6103f6600480803573ffffffffffffffffffffffffffffffffffffffff16906020019091905050610f68565b005b341561040357600080fd5b61040b6110bd565b6040518082815260200191505060405180910390f35b341561042c57600080fd5b6104346110ca565b6040518082815260200191505060405180910390f35b60045481565b60035481565b600080600560009054906101000a900460ff1615151561047557600080fd5b60016000846000191660001916815260200190815260200160002091503373ffffffffffffffffffffffffffffffffffffffff168260000160009054906101000a900473ffffffffffffffffffffffffffffffffffffffff1673ffffffffffffffffffffffffffffffffffffffff161415156104f057600080fd5b4382600301541015151561050357600080fd5b7fb08819610fc1e43f5f00e490e3dc734227566ca4b6c95dbb8c0b5f1a554e7b908260000160009054906101000a900473ffffffffffffffffffffffffffffffffffffffff1684604051808373ffffffffffffffffffffffffffffffffffffffff1673ffffffffffffffffffffffffffffffffffffffff16815260200182600019166000191681526020019250505060405180910390a181600201549050600082600201819055503373ffffffffffffffffffffffffffffffffffffffff166108fc829081150290604051600060405180830381858888f1935050505015156105eb57600080fd5b505050565b60008060009054906101000a900473ffffffffffffffffffffffffffffffffffffffff1673ffffffffffffffffffffffffffffffffffffffff163373ffffffffffffffffffffffffffffffffffffffff1614151561064d57600080fd5b600560009054906101000a900460ff1615158215151415151561066f57600080fd5b81600560006101000a81548160ff0219169083151502179055507f9885b484a3068de5c38fb9073ed8489371efc9514b9a174a9cd1df5326d2e45433600560009054906101000a900460ff16604051808373ffffffffffffffffffffffffffffffffffffffff1673ffffffffffffffffffffffffffffffffffffffff168152602001821515151581526020019250505060405180910390a1600560009054906101000a900460ff169050919050565b60008060008061072c6110d7565b600560009054906101000a900460ff1615151561074857600080fd5b60035443870310151561075a57600080fd5b60003411151561076957600080fd5b8688604051808373ffffffffffffffffffffffffffffffffffffffff1673ffffffffffffffffffffffffffffffffffffffff166c0100000000000000000000000002815260140182600019166000191681526020019250505060405180910390209350600254620f42403a020292508260046000828254019250508190555082340391506000821115156107fc57600080fd5b6080604051908101604052803373ffffffffffffffffffffffffffffffffffffffff1681526020018560001916815260200183815260200187815250905080600160008a6000191660001916815260200190815260200160002060008201518160000160006101000a81548173ffffffffffffffffffffffffffffffffffffffff021916908373ffffffffffffffffffffffffffffffffffffffff1602179055506020820151816001019060001916905560408201518160020155606082015181600301559050507fbfb3edbbf2a07411cb81953ef7f010f4f2f89471b6139b9988f67c77975035d533838a86604051808573ffffffffffffffffffffffffffffffffffffffff1673ffffffffffffffffffffffffffffffffffffffff168152602001848152602001836000191660001916815260200182815260200194505050505060405180910390a1879450505050509392505050565b60008060009054906101000a900473ffffffffffffffffffffffffffffffffffffffff1673ffffffffffffffffffffffffffffffffffffffff163373ffffffffffffffffffffffffffffffffffffffff161415156109b257600080fd5b6000809054906101000a900473ffffffffffffffffffffffffffffffffffffffff1673ffffffffffffffffffffffffffffffffffffffff163373ffffffffffffffffffffffffffffffffffffffff16141515610a0d57600080fd5b600454905060006004819055506000809054906101000a900473ffffffffffffffffffffffffffffffffffffffff1673ffffffffffffffffffffffffffffffffffffffff166108fc829081150290604051600060405180830381858888f193505050501515610a7b57600080fd5b50565b600080600560009054906101000a900460ff16151515610a9d57600080fd5b60016000856000191660001916815260200190815260200160002091506000826002015414151515610ace57600080fd5b33836040518082805190602001908083835b602083101515610b055780518252602082019150602081019050602083039250610ae0565b6001836020036101000a0380198251168184511680821785525050505050509050019150506040518091039020604051808373ffffffffffffffffffffffffffffffffffffffff1673ffffffffffffffffffffffffffffffffffffffff166c01000000000000000000000000028152601401826000191660001916815260200192505050604051809103902060001916826001015460001916141515610baa57600080fd5b7fc8a735941d66d6d350c5df6a15a3fc166fffad4ffab063443d3bbb0d4deb822933858460020154604051808473ffffffffffffffffffffffffffffffffffffffff1673ffffffffffffffffffffffffffffffffffffffff1681526020018360001916600019168152602001828152602001935050505060405180910390a181600201549050600082600201819055503373ffffffffffffffffffffffffffffffffffffffff166108fc829081150290604051600060405180830381858888f193505050501515610c7a57600080fd5b50505050565b6000809054906101000a900473ffffffffffffffffffffffffffffffffffffffff1681565b60008160405180826000191660001916815260200191505060405180910390209050919050565b60016020528060005260406000206000915090508060000160009054906101000a900473ffffffffffffffffffffffffffffffffffffffff16908060010154908060020154908060030154905084565b6000809054906101000a900473ffffffffffffffffffffffffffffffffffffffff1673ffffffffffffffffffffffffffffffffffffffff163373ffffffffffffffffffffffffffffffffffffffff16141515610d7757600080fd5b600073ffffffffffffffffffffffffffffffffffffffff168173ffffffffffffffffffffffffffffffffffffffff16141515610e8b577fbfbc8869a456fb3f83a6d2cbe5d2315d71106320e79e474f4564637cf4035c52813073ffffffffffffffffffffffffffffffffffffffff1631604051808373ffffffffffffffffffffffffffffffffffffffff1673ffffffffffffffffffffffffffffffffffffffff1681526020018281526020019250505060405180910390a18073ffffffffffffffffffffffffffffffffffffffff166108fc3073ffffffffffffffffffffffffffffffffffffffff16319081150290604051600060405180830381858888f193505050501515610e8657600080fd5b610f65565b7fbfbc8869a456fb3f83a6d2cbe5d2315d71106320e79e474f4564637cf4035c52333073ffffffffffffffffffffffffffffffffffffffff1631604051808373ffffffffffffffffffffffffffffffffffffffff1673ffffffffffffffffffffffffffffffffffffffff1681526020018281526020019250505060405180910390a13373ffffffffffffffffffffffffffffffffffffffff166108fc3073ffffffffffffffffffffffffffffffffffffffff16319081150290604051600060405180830381858888f193505050501515610f6457600080fd5b5b50565b6000809054906101000a900473ffffffffffffffffffffffffffffffffffffffff1673ffffffffffffffffffffffffffffffffffffffff163373ffffffffffffffffffffffffffffffffffffffff16141515610fc357600080fd5b600073ffffffffffffffffffffffffffffffffffffffff168173ffffffffffffffffffffffffffffffffffffffff1614151515610fff57600080fd5b8073ffffffffffffffffffffffffffffffffffffffff166000809054906101000a900473ffffffffffffffffffffffffffffffffffffffff1673ffffffffffffffffffffffffffffffffffffffff167f8be0079c531659141344cd1fd0a4f28419497f9722a3daafe3b4186f6b6457e060405160405180910390a3806000806101000a81548173ffffffffffffffffffffffffffffffffffffffff021916908373ffffffffffffffffffffffffffffffffffffffff16021790555050565b6000804390508091505090565b6000620f42403a02905090565b608060405190810160405280600073ffffffffffffffffffffffffffffffffffffffff16815260200160008019168152602001600081526020016000815250905600a165627a7a723058206a7c1c56a4e5983648a2b66d8d86f6476f74ba4e97410ccdf662958a9960154d0029",
  "source": "pragma solidity 0.4.18;\n\nimport 'zeppelin-solidity/contracts/ownership/Ownable.sol';\n// Alice creates a new Remittance Instance with 2 passwords, ETH and a deadlineBlock and a benificiary\n// Carol trades Bob's password for the funds\n// Carol then unlock the funds with Bob's password, and her address\n// Alice can withdraw her funds after a certain point, with maxDeadlineHeight defining the maximum blockheight after the creation\n// Upon withdrawal, a fee is taken based on current tx.gasprice * contractCreationGasCost\n// The contract owner can withdraw the current bankroll with takeProfits()\n\ncontract Remittance is Ownable {\n  \n  event LogRemittanceClaimed(address claimer, bytes32 instanceId, uint amount);\n  event LogRemittanceCreated(address owner, uint amount, bytes32 instanceId, uint fee);\n  event LogRemittanceCancelled(address remittanceInstanceOwner, bytes32 instanceId);\n  event LogKillswitch(address receiver, uint amount);\n  event LogPaused(address sender, bool paused);\n  \n  mapping (bytes32 => RemittanceInstance) public remittances;\n  \n  // Current estimate of contract creation cost\n  uint contractCreationGasCost = 2000000;\n  // Maximum amount of blocks after which remittance owner can withdraw\n  uint public maxDeadlineHeight = 1000;\n  // Profit ready for withdrawal\n  uint public bankroll;\n  \n  bool paused;\n  modifier pausable{\n    require(!paused);\n    _;\n  }\n  \n  struct RemittanceInstance {\n    address owner;\n    bytes32 passphrase; // Hashed password_one\n    uint amount; // Amount of eth\n    uint deadlineBlock; //  BlockHeight after which amount is reclaimable\n  }\n  \n  function Remittance() public {\n    owner = msg.sender;\n  }\n  \n  // Person B can then claim the funds with both passwords\n  function claimFunds(bytes32 identifier, string password)\n  pausable\n  public\n  {\n    // Get the remittanceInstance from our mapping by name\n    RemittanceInstance storage instance = remittances[identifier];\n    // Make sure there is a instance under that name AND that there is still money to be sent\n    require(instance.amount != 0);\n    // We need the second hashed password to match plus the senders address\n    require(instance.passphrase == keccak256(msg.sender, keccak256(password)));\n    \n    LogRemittanceClaimed(msg.sender, identifier, instance.amount);\n    // Save the amount to be sent in a seperate variable\n    uint amountToSend = instance.amount;\n    // Clear the instance amount\n    instance.amount = 0;\n    // Finally, transfer the amount to the person claiming it\n    msg.sender.transfer(amountToSend);\n  }\n  \n  // Owner of a project can cancel the remittance up until a certain point\n  function cancelProject(bytes32 identifier)\n  public\n  pausable\n  {\n    // Get the instance from our mapping by name\n    RemittanceInstance storage instance = remittances[identifier];\n    require(instance.owner == msg.sender);\n    // After the deadline block, owner can claim funds\n    require(instance.deadlineBlock >= block.number);\n    LogRemittanceCancelled(instance.owner, identifier);\n    // Save the amount to be sent in a seperate variable\n    uint amountToSend = instance.amount;\n    // Clear the instance amount\n    instance.amount = 0;\n    // Finally, transfer the amount to the owner\n    msg.sender.transfer(amountToSend);\n  }\n  \n  // Create a new Remittance project\n  function newProject(bytes32 passphrase,  address claimer, uint deadlineBlock)\n  public\n  pausable\n  payable\n  returns (bytes32 identifier)\n  {\n    // Deadline can't be further away than the max Deadline BlockHeight\n    require((deadlineBlock - block.number) < maxDeadlineHeight);\n    // There needs to be something to remit\n    require(msg.value > 0);\n    // Create new Project struct\n    bytes32 finalHash = keccak256(claimer,passphrase);\n    // Calculate current fee based on gasprice\n    uint fee = tx.gasprice * 1000000 * contractCreationGasCost;\n    // Add fee to the bankroll\n    bankroll += fee;\n    // Gotta pay taxes\n    uint amountToSend = msg.value - fee;\n    require(amountToSend > 0);\n    \n    RemittanceInstance memory remittanceInstance =\n    RemittanceInstance(\n      {owner: msg.sender,\n      passphrase: finalHash,\n      amount: amountToSend,\n      deadlineBlock: deadlineBlock\n      });\n    \n    remittances[passphrase] = remittanceInstance;\n    LogRemittanceCreated(msg.sender, amountToSend, passphrase, fee);\n    return passphrase;\n  }\n  \n  // Emergency function to drain all funds from the contract and pauses it\n  function panicButton(address emergencyExit)\n  public\n  onlyOwner\n  {\n    if(emergencyExit != address(0))\n    {\n      LogKillswitch(emergencyExit, this.balance);\n      emergencyExit.transfer(this.balance);\n    }else{\n      LogKillswitch(msg.sender, this.balance);\n      msg.sender.transfer(this.balance);\n    }\n  }\n  \n  // Drain the bankroll\n  function takeProfits()\n  onlyOwner\n  public\n  {\n    require(msg.sender == owner);\n    uint toSend = bankroll;\n    bankroll = 0;\n    owner.transfer(toSend);\n  }\n  \n  function setPaused(bool value)\n  onlyOwner\n  public\n  returns (bool isPaused)\n  {\n    require(value != paused);\n    paused = value;\n    LogPaused(msg.sender, paused);\n    return paused;\n  }\n  \n  // Helper functions\n  \n  function blockHeight()\n  public\n  view\n  returns(uint blockheight)\n  {\n    uint height = block.number;\n    return height;\n  }\n  \n  function gasPrice()\n  public\n  view\n  returns(uint gasprice)\n  {\n    return (tx.gasprice * 1000000);\n  }\n  \n  function hashPassword(bytes32 password)\n  public\n  pure\n  returns(bytes32 hash)\n  {\n    return keccak256(password);\n  }\n  \n}",
  "sourcePath": "/Users/janjorissen/Projects/b9labs-eth20/contracts/Remittance.sol",
  "compiler": {
    "name": "solc",
    "version": "0.4.18+commit.9cf6e910.Emscripten.clang"
  },
  "schemaVersion": "1.0.1",
  "updatedAt": "2018-03-04T20:22:34.915Z"
}