{
  "contractName": "Youtube",
  "abi": [
    {
      "constant": true,
      "inputs": [],
      "name": "owner",
      "outputs": [
        {
          "name": "",
          "type": "address"
        }
      ],
      "payable": false,
      "stateMutability": "view",
      "type": "function"
    },
    {
      "constant": true,
      "inputs": [],
      "name": "lastRequest",
      "outputs": [
        {
          "name": "URL",
          "type": "string"
        },
        {
          "name": "extra",
          "type": "string"
        },
        {
          "name": "sender",
          "type": "address"
        }
      ],
      "payable": false,
      "stateMutability": "view",
      "type": "function"
    },
    {
      "constant": true,
      "inputs": [
        {
          "name": "",
          "type": "uint256"
        }
      ],
      "name": "videos",
      "outputs": [
        {
          "name": "URL",
          "type": "string"
        },
        {
          "name": "extra",
          "type": "string"
        },
        {
          "name": "sender",
          "type": "address"
        }
      ],
      "payable": false,
      "stateMutability": "view",
      "type": "function"
    },
    {
      "constant": true,
      "inputs": [],
      "name": "numVideos",
      "outputs": [
        {
          "name": "",
          "type": "uint256"
        }
      ],
      "payable": false,
      "stateMutability": "view",
      "type": "function"
    },
    {
      "constant": false,
      "inputs": [
        {
          "name": "newOwner",
          "type": "address"
        }
      ],
      "name": "transferOwnership",
      "outputs": [],
      "payable": false,
      "stateMutability": "nonpayable",
      "type": "function"
    },
    {
      "inputs": [],
      "payable": false,
      "stateMutability": "nonpayable",
      "type": "constructor"
    },
    {
      "payable": false,
      "stateMutability": "nonpayable",
      "type": "fallback"
    },
    {
      "anonymous": false,
      "inputs": [
        {
          "indexed": true,
          "name": "videoId",
          "type": "uint256"
        },
        {
          "indexed": true,
          "name": "by",
          "type": "address"
        },
        {
          "indexed": false,
          "name": "URL",
          "type": "string"
        },
        {
          "indexed": false,
          "name": "message",
          "type": "string"
        }
      ],
      "name": "LogVideoCreated",
      "type": "event"
    },
    {
      "anonymous": false,
      "inputs": [
        {
          "indexed": true,
          "name": "by",
          "type": "address"
        },
        {
          "indexed": false,
          "name": "amount",
          "type": "uint256"
        }
      ],
      "name": "LogBalanceUpdated",
      "type": "event"
    },
    {
      "anonymous": false,
      "inputs": [
        {
          "indexed": true,
          "name": "by",
          "type": "address"
        },
        {
          "indexed": false,
          "name": "amount",
          "type": "uint256"
        }
      ],
      "name": "LogWithdrawal",
      "type": "event"
    },
    {
      "anonymous": false,
      "inputs": [
        {
          "indexed": true,
          "name": "by",
          "type": "address"
        }
      ],
      "name": "LogKill",
      "type": "event"
    },
    {
      "anonymous": false,
      "inputs": [
        {
          "indexed": true,
          "name": "previousOwner",
          "type": "address"
        },
        {
          "indexed": true,
          "name": "newOwner",
          "type": "address"
        }
      ],
      "name": "OwnershipTransferred",
      "type": "event"
    },
    {
      "constant": true,
      "inputs": [],
      "name": "numVids",
      "outputs": [
        {
          "name": "num",
          "type": "uint256"
        }
      ],
      "payable": false,
      "stateMutability": "view",
      "type": "function"
    },
    {
      "constant": true,
      "inputs": [],
      "name": "getBalance",
      "outputs": [
        {
          "name": "bal",
          "type": "uint256"
        }
      ],
      "payable": false,
      "stateMutability": "view",
      "type": "function"
    },
    {
      "constant": false,
      "inputs": [
        {
          "name": "URL",
          "type": "string"
        },
        {
          "name": "extra",
          "type": "string"
        }
      ],
      "name": "requestVideo",
      "outputs": [
        {
          "name": "videoID",
          "type": "uint256"
        }
      ],
      "payable": true,
      "stateMutability": "payable",
      "type": "function"
    },
    {
      "constant": false,
      "inputs": [],
      "name": "withdrawFunds",
      "outputs": [
        {
          "name": "success",
          "type": "bool"
        }
      ],
      "payable": false,
      "stateMutability": "nonpayable",
      "type": "function"
    },
    {
      "constant": false,
      "inputs": [],
      "name": "kill",
      "outputs": [],
      "payable": false,
      "stateMutability": "nonpayable",
      "type": "function"
    }
  ],
  "bytecode": "0x608060405234801561001057600080fd5b50336000806101000a81548173ffffffffffffffffffffffffffffffffffffffff021916908373ffffffffffffffffffffffffffffffffffffffff160217905550336000806101000a81548173ffffffffffffffffffffffffffffffffffffffff021916908373ffffffffffffffffffffffffffffffffffffffff160217905550611083806100a06000396000f3006080604052600436106100a4576000357c0100000000000000000000000000000000000000000000000000000000900463ffffffff16806312065fe0146100b657806324600fc3146100e157806341c0e1b51461011057806344428db9146101275780638da5cb5b14610152578063cd9deaca146101a9578063e6821bf5146102d8578063ebec73521461041d578063f2fde38b14610448578063f9c832c91461048b575b3480156100b057600080fd5b50600080fd5b3480156100c257600080fd5b506100cb610541565b6040518082815260200191505060405180910390f35b3480156100ed57600080fd5b506100f6610560565b604051808215151515815260200191505060405180910390f35b34801561011c57600080fd5b50610125610674565b005b34801561013357600080fd5b5061013c610766565b6040518082815260200191505060405180910390f35b34801561015e57600080fd5b50610167610770565b604051808273ffffffffffffffffffffffffffffffffffffffff1673ffffffffffffffffffffffffffffffffffffffff16815260200191505060405180910390f35b3480156101b557600080fd5b506101be610795565b6040518080602001806020018473ffffffffffffffffffffffffffffffffffffffff1673ffffffffffffffffffffffffffffffffffffffff168152602001838103835286818151815260200191508051906020019080838360005b83811015610234578082015181840152602081019050610219565b50505050905090810190601f1680156102615780820380516001836020036101000a031916815260200191505b50838103825285818151815260200191508051906020019080838360005b8381101561029a57808201518184015260208101905061027f565b50505050905090810190601f1680156102c75780820380516001836020036101000a031916815260200191505b509550505050505060405180910390f35b3480156102e457600080fd5b50610303600480360381019080803590602001909291905050506108fd565b6040518080602001806020018473ffffffffffffffffffffffffffffffffffffffff1673ffffffffffffffffffffffffffffffffffffffff168152602001838103835286818151815260200191508051906020019080838360005b8381101561037957808201518184015260208101905061035e565b50505050905090810190601f1680156103a65780820380516001836020036101000a031916815260200191505b50838103825285818151815260200191508051906020019080838360005b838110156103df5780820151818401526020810190506103c4565b50505050905090810190601f16801561040c5780820380516001836020036101000a031916815260200191505b509550505050505060405180910390f35b34801561042957600080fd5b50610432610a77565b6040518082815260200191505060405180910390f35b34801561045457600080fd5b50610489600480360381019080803573ffffffffffffffffffffffffffffffffffffffff169060200190929190505050610a7d565b005b61052b600480360381019080803590602001908201803590602001908080601f0160208091040260200160405190810160405280939291908181526020018383808284378201915050505050509192919290803590602001908201803590602001908080601f0160208091040260200160405190810160405280939291908181526020018383808284378201915050505050509192919290505050610bd2565b6040518082815260200191505060405180910390f35b60003073ffffffffffffffffffffffffffffffffffffffff1631905090565b6000806000809054906101000a900473ffffffffffffffffffffffffffffffffffffffff1673ffffffffffffffffffffffffffffffffffffffff163373ffffffffffffffffffffffffffffffffffffffff161415156105be57600080fd5b6105c6610541565b90506000811115156105d757600080fd5b3373ffffffffffffffffffffffffffffffffffffffff167fb4214c8c54fc7442f36d3682f59aebaf09358a4431835b30efb29d52cf9e1e91826040518082815260200191505060405180910390a23373ffffffffffffffffffffffffffffffffffffffff166108fc829081150290604051600060405180830381858888f1935050505015801561066b573d6000803e3d6000fd5b50600191505090565b6000809054906101000a900473ffffffffffffffffffffffffffffffffffffffff1673ffffffffffffffffffffffffffffffffffffffff163373ffffffffffffffffffffffffffffffffffffffff161415156106cf57600080fd5b60006106d9610541565b11156106e9576106e7610560565b505b3373ffffffffffffffffffffffffffffffffffffffff167f7cd531232cf2a935531a2059a1021ee56cecce23e6f421cfa5cb1043fe101ab860405160405180910390a26000809054906101000a900473ffffffffffffffffffffffffffffffffffffffff1673ffffffffffffffffffffffffffffffffffffffff16ff5b6000600154905090565b6000809054906101000a900473ffffffffffffffffffffffffffffffffffffffff1681565b6002806000018054600181600116156101000203166002900480601f01602080910402602001604051908101604052809291908181526020018280546001816001161561010002031660029004801561082f5780601f106108045761010080835404028352916020019161082f565b820191906000526020600020905b81548152906001019060200180831161081257829003601f168201915b505050505090806001018054600181600116156101000203166002900480601f0160208091040260200160405190810160405280929190818152602001828054600181600116156101000203166002900480156108cd5780601f106108a2576101008083540402835291602001916108cd565b820191906000526020600020905b8154815290600101906020018083116108b057829003601f168201915b5050505050908060020160009054906101000a900473ffffffffffffffffffffffffffffffffffffffff16905083565b6005602052806000526040600020600091509050806000018054600181600116156101000203166002900480601f0160208091040260200160405190810160405280929190818152602001828054600181600116156101000203166002900480156109a95780601f1061097e576101008083540402835291602001916109a9565b820191906000526020600020905b81548152906001019060200180831161098c57829003601f168201915b505050505090806001018054600181600116156101000203166002900480601f016020809104026020016040519081016040528092919081815260200182805460018160011615610100020316600290048015610a475780601f10610a1c57610100808354040283529160200191610a47565b820191906000526020600020905b815481529060010190602001808311610a2a57829003601f168201915b5050505050908060020160009054906101000a900473ffffffffffffffffffffffffffffffffffffffff16905083565b60015481565b6000809054906101000a900473ffffffffffffffffffffffffffffffffffffffff1673ffffffffffffffffffffffffffffffffffffffff163373ffffffffffffffffffffffffffffffffffffffff16141515610ad857600080fd5b600073ffffffffffffffffffffffffffffffffffffffff168173ffffffffffffffffffffffffffffffffffffffff1614151515610b1457600080fd5b8073ffffffffffffffffffffffffffffffffffffffff166000809054906101000a900473ffffffffffffffffffffffffffffffffffffffff1673ffffffffffffffffffffffffffffffffffffffff167f8be0079c531659141344cd1fd0a4f28419497f9722a3daafe3b4186f6b6457e060405160405180910390a3806000806101000a81548173ffffffffffffffffffffffffffffffffffffffff021916908373ffffffffffffffffffffffffffffffffffffffff16021790555050565b60006060806000806000809054906101000a900473ffffffffffffffffffffffffffffffffffffffff1673ffffffffffffffffffffffffffffffffffffffff1614151515610c1f57600080fd5b85925060038351111515610c3257600080fd5b60016000815480929190600101919050559350849150600082511115610cb757600034111515610c6157600080fd5b3373ffffffffffffffffffffffffffffffffffffffff167fc8390e7323469a0cff9aa3267d81558e5c3151fcf745360a7fb18e7ea9ae6ea9610ca1610541565b6040518082815260200191505060405180910390a25b60056000858152602001908152602001600020905084816001019080519060200190610ce4929190610f2b565b50338160020160006101000a81548173ffffffffffffffffffffffffffffffffffffffff021916908373ffffffffffffffffffffffffffffffffffffffff16021790555085816000019080519060200190610d40929190610f2b565b5080600260008201816000019080546001816001161561010002031660029004610d6b929190610fab565b5060018201816001019080546001816001161561010002031660029004610d93929190610fab565b506002820160009054906101000a900473ffffffffffffffffffffffffffffffffffffffff168160020160006101000a81548173ffffffffffffffffffffffffffffffffffffffff021916908373ffffffffffffffffffffffffffffffffffffffff1602179055509050503373ffffffffffffffffffffffffffffffffffffffff16847f3bcf37badf56c83bc5dcb9129ad4d15ea4a7272aee31dbd58d6ffff9be31e6c08888604051808060200180602001838103835285818151815260200191508051906020019080838360005b83811015610e7d578082015181840152602081019050610e62565b50505050905090810190601f168015610eaa5780820380516001836020036101000a031916815260200191505b50838103825284818151815260200191508051906020019080838360005b83811015610ee3578082015181840152602081019050610ec8565b50505050905090810190601f168015610f105780820380516001836020036101000a031916815260200191505b5094505050505060405180910390a383935050505092915050565b828054600181600116156101000203166002900490600052602060002090601f016020900481019282601f10610f6c57805160ff1916838001178555610f9a565b82800160010185558215610f9a579182015b82811115610f99578251825591602001919060010190610f7e565b5b509050610fa79190611032565b5090565b828054600181600116156101000203166002900490600052602060002090601f016020900481019282601f10610fe45780548555611021565b8280016001018555821561102157600052602060002091601f016020900482015b82811115611020578254825591600101919060010190611005565b5b50905061102e9190611032565b5090565b61105491905b80821115611050576000816000905550600101611038565b5090565b905600a165627a7a723058205178bdfa2d0fbbe0a018ad9bb07b6b8aea79a3b146aaccd28b943eff97ea40340029",
  "source": "pragma solidity ^0.4.11;\n\nimport 'zeppelin-solidity/contracts/ownership/Ownable.sol';\n\ncontract Youtube is Ownable {\n\n    struct Video {\n        string URL;\n        string extra;\n        address sender;\n    }\n\n    uint public numVideos;\n\n    Video public lastRequest;\n    mapping (uint => Video) public videos;\n\n    event LogVideoCreated(uint indexed videoId, address indexed by, string URL, string message);\n    event LogBalanceUpdated(address indexed by, uint amount);\n    event LogWithdrawal(address indexed by, uint amount);\n    event LogKill(address indexed by);\n\n    // Constructor\n    function Youtube()\n    public {\n        owner = msg.sender;\n    }\n\n    // Fallback function\n    function()\n    public{\n        revert();\n    }\n\n    function numVids()\n    public\n    view\n    returns (uint num){\n        return numVideos;\n    }\n\n    function getBalance()\n    public\n    view\n    returns (uint bal) {\n        return address(this).balance;\n    }\n\n    function requestVideo(string URL, string extra)\n    public\n    payable\n    returns (uint videoID) {\n        // Check if Contract hasn't been killed\n        require(owner != 0);\n\n        // TODO: Improve this\n        // Checks if a URL length > 4 has been added\n        bytes memory URLString = bytes(URL);\n        require(URLString.length > 3);\n\n        videoID = numVideos++;\n\n        // TODO: Improve this\n        // Checks if a message has been added\n        bytes memory tempEmptyStringTest = bytes(extra);\n        if(tempEmptyStringTest.length > 0){\n            // Require a payment for a custom message\n            require(msg.value > 0);\n\n            emit LogBalanceUpdated(msg.sender, getBalance());\n        }\n\n        // videoID is return variable\n        Video storage v = videos[videoID];\n        v.extra = extra;\n        v.sender = msg.sender;\n        v.URL = URL;\n\n        // TODO: Improve this\n        lastRequest = v;\n\n        emit LogVideoCreated(videoID, msg.sender, URL, extra);\n\n        return videoID;\n    }\n\n    // The Owner can use this function to withdraw their payments\n    function withdrawFunds()\n    public\n    onlyOwner\n    returns (bool success){\n        uint amount = getBalance();\n        require(amount > 0);\n\n        // Remember to zero the pending refund before\n        // sending to prevent re-entrancy attacks\n        emit LogWithdrawal(msg.sender, amount);\n\n        msg.sender.transfer(amount);\n\n        return true;\n    }\n\n    function kill()\n    public\n    onlyOwner {\n        if(getBalance() > 0){\n            withdrawFunds();\n        }\n\n        emit LogKill(msg.sender);\n\n        selfdestruct(owner);\n    }\n}\n",
  "sourcePath": "/Users/janjorissen/Projects/b9labs-eth20/contracts/Youtube.sol",
  "compiler": {
    "name": "solc",
    "version": "0.4.24+commit.e67f0147.Emscripten.clang"
  },
  "schemaVersion": "2.0.0",
  "updatedAt": "2018-05-31T20:59:37.515Z"
}