{
  "contractName": "Youtube",
  "abi": [
    {
      "constant": true,
      "inputs": [],
      "name": "numVids",
      "outputs": [
        {
          "name": "num",
          "type": "uint256"
        }
      ],
      "payable": false,
      "stateMutability": "view",
      "type": "function"
    },
    {
      "constant": true,
      "inputs": [],
      "name": "owner",
      "outputs": [
        {
          "name": "",
          "type": "address"
        }
      ],
      "payable": false,
      "stateMutability": "view",
      "type": "function"
    },
    {
      "constant": true,
      "inputs": [
        {
          "name": "",
          "type": "uint256"
        }
      ],
      "name": "videos",
      "outputs": [
        {
          "name": "URL",
          "type": "string"
        },
        {
          "name": "extra",
          "type": "string"
        },
        {
          "name": "sender",
          "type": "address"
        }
      ],
      "payable": false,
      "stateMutability": "view",
      "type": "function"
    },
    {
      "constant": true,
      "inputs": [],
      "name": "lastURL",
      "outputs": [
        {
          "name": "",
          "type": "string"
        }
      ],
      "payable": false,
      "stateMutability": "view",
      "type": "function"
    },
    {
      "constant": false,
      "inputs": [
        {
          "name": "URL",
          "type": "string"
        },
        {
          "name": "extra",
          "type": "string"
        }
      ],
      "name": "requestVideo",
      "outputs": [
        {
          "name": "videoID",
          "type": "uint256"
        }
      ],
      "payable": true,
      "stateMutability": "payable",
      "type": "function"
    },
    {
      "inputs": [],
      "payable": false,
      "stateMutability": "nonpayable",
      "type": "constructor"
    },
    {
      "anonymous": false,
      "inputs": [
        {
          "indexed": false,
          "name": "videoId",
          "type": "uint256"
        },
        {
          "indexed": false,
          "name": "URL",
          "type": "string"
        }
      ],
      "name": "VideoCreated",
      "type": "event"
    }
  ],
  "bytecode": "0x6060604052341561000f57600080fd5b33600260006101000a81548173ffffffffffffffffffffffffffffffffffffffff021916908373ffffffffffffffffffffffffffffffffffffffff1602179055506106f08061005f6000396000f30060606040526004361061006d576000357c0100000000000000000000000000000000000000000000000000000000900463ffffffff16806344428db9146100725780638da5cb5b1461009b578063e6821bf5146100f0578063ea85d2c014610265578063f9c832c9146102f3575b600080fd5b341561007d57600080fd5b61008561039c565b6040518082815260200191505060405180910390f35b34156100a657600080fd5b6100ae6103a5565b604051808273ffffffffffffffffffffffffffffffffffffffff1673ffffffffffffffffffffffffffffffffffffffff16815260200191505060405180910390f35b34156100fb57600080fd5b61011160048080359060200190919050506103cb565b6040518080602001806020018473ffffffffffffffffffffffffffffffffffffffff1673ffffffffffffffffffffffffffffffffffffffff1681526020018381038352868181546001816001161561010002031660029004815260200191508054600181600116156101000203166002900480156101d05780601f106101a5576101008083540402835291602001916101d0565b820191906000526020600020905b8154815290600101906020018083116101b357829003601f168201915b50508381038252858181546001816001161561010002031660029004815260200191508054600181600116156101000203166002900480156102535780601f1061022857610100808354040283529160200191610253565b820191906000526020600020905b81548152906001019060200180831161023657829003601f168201915b50509550505050505060405180910390f35b341561027057600080fd5b610278610413565b6040518080602001828103825283818151815260200191508051906020019080838360005b838110156102b857808201518184015260208101905061029d565b50505050905090810190601f1680156102e55780820380516001836020036101000a031916815260200191505b509250505060405180910390f35b610386600480803590602001908201803590602001908080601f0160208091040260200160405190810160405280939291908181526020018383808284378201915050505050509190803590602001908201803590602001908080601f016020809104026020016040519081016040528093929190818152602001838380828437820191505050505050919050506104b1565b6040518082815260200191505060405180910390f35b60008054905090565b600260009054906101000a900473ffffffffffffffffffffffffffffffffffffffff1681565b6003602052806000526040600020600091509050806000019080600101908060020160009054906101000a900473ffffffffffffffffffffffffffffffffffffffff16905083565b60018054600181600116156101000203166002900480601f0160208091040260200160405190810160405280929190818152602001828054600181600116156101000203166002900480156104a95780601f1061047e576101008083540402835291602001916104a9565b820191906000526020600020905b81548152906001019060200180831161048c57829003601f168201915b505050505081565b60008060008081548092919060010191905055915060036000838152602001908152602001600020905060003411156104fe57828160010190805190602001906104fc92919061061f565b505b338160020160006101000a81548173ffffffffffffffffffffffffffffffffffffffff021916908373ffffffffffffffffffffffffffffffffffffffff1602179055508381600001908051906020019061055992919061061f565b50836001908051906020019061057092919061061f565b507f211897d996fa3f5c7d70fc9bc904481ef98c6167ee7ae1dfe2d8e334877d4a5982856040518083815260200180602001828103825283818151815260200191508051906020019080838360005b838110156105da5780820151818401526020810190506105bf565b50505050905090810190601f1680156106075780820380516001836020036101000a031916815260200191505b50935050505060405180910390a18191505092915050565b828054600181600116156101000203166002900490600052602060002090601f016020900481019282601f1061066057805160ff191683800117855561068e565b8280016001018555821561068e579182015b8281111561068d578251825591602001919060010190610672565b5b50905061069b919061069f565b5090565b6106c191905b808211156106bd5760008160009055506001016106a5565b5090565b905600a165627a7a723058208efcacc574d7f4407c10cd04c299c886b0d78b04bdbd24e3495914df6d2422e50029",
  "source": "pragma solidity ^0.4.11;\n\ncontract Youtube {\n\n    struct Video {\n        string URL;\n        string extra;\n        address sender;\n    }\n\n    uint numVideos;\n\n    string public lastURL;\n    address public owner;\n    mapping (uint => Video) public videos;\n\n    event VideoCreated(uint videoId, string URL);\n\n    function Youtube() public {\n        owner = msg.sender;\n    }\n\n    function numVids() public view returns (uint num){\n        return numVideos;\n    }\n\n    function requestVideo(string URL, string extra) public payable returns (uint videoID) {\n        videoID = numVideos++;\n        // videoID is return variable\n        Video storage v = videos[videoID];\n        if(msg.value > 0){\n            v.extra = extra;\n        }\n        v.sender = msg.sender;\n        v.URL = URL;\n        lastURL = URL;\n        VideoCreated(videoID, URL);\n        return videoID;\n    }\n\n}",
  "sourcePath": "/Users/janjorissen/Projects/cryptoquarium/contracts/contracts/Youtube.sol",
  "compiler": {
    "name": "solc",
    "version": "0.4.18+commit.9cf6e910.Emscripten.clang"
  },
  "schemaVersion": "1.0.1",
  "updatedAt": "2017-12-17T13:48:22.154Z"
}