{
  "contractName": "Youtube",
  "abi": [
    {
      "constant": false,
      "inputs": [
        {
          "name": "_new",
          "type": "address"
        }
      ],
      "name": "setOwner",
      "outputs": [],
      "payable": false,
      "stateMutability": "nonpayable",
      "type": "function"
    },
    {
      "constant": true,
      "inputs": [],
      "name": "owner",
      "outputs": [
        {
          "name": "",
          "type": "address"
        }
      ],
      "payable": false,
      "stateMutability": "view",
      "type": "function"
    },
    {
      "constant": true,
      "inputs": [
        {
          "name": "",
          "type": "uint256"
        }
      ],
      "name": "videos",
      "outputs": [
        {
          "name": "URL",
          "type": "string"
        },
        {
          "name": "extra",
          "type": "string"
        },
        {
          "name": "sender",
          "type": "address"
        }
      ],
      "payable": false,
      "stateMutability": "view",
      "type": "function"
    },
    {
      "constant": true,
      "inputs": [],
      "name": "lastURL",
      "outputs": [
        {
          "name": "",
          "type": "string"
        }
      ],
      "payable": false,
      "stateMutability": "view",
      "type": "function"
    },
    {
      "constant": true,
      "inputs": [],
      "name": "numVideos",
      "outputs": [
        {
          "name": "",
          "type": "uint256"
        }
      ],
      "payable": false,
      "stateMutability": "view",
      "type": "function"
    },
    {
      "inputs": [],
      "payable": false,
      "stateMutability": "nonpayable",
      "type": "constructor"
    },
    {
      "payable": false,
      "stateMutability": "nonpayable",
      "type": "fallback"
    },
    {
      "anonymous": false,
      "inputs": [
        {
          "indexed": true,
          "name": "videoId",
          "type": "uint256"
        },
        {
          "indexed": true,
          "name": "by",
          "type": "address"
        },
        {
          "indexed": false,
          "name": "URL",
          "type": "string"
        },
        {
          "indexed": false,
          "name": "message",
          "type": "string"
        }
      ],
      "name": "LogVideoCreated",
      "type": "event"
    },
    {
      "anonymous": false,
      "inputs": [
        {
          "indexed": true,
          "name": "by",
          "type": "address"
        },
        {
          "indexed": false,
          "name": "amount",
          "type": "uint256"
        }
      ],
      "name": "LogBalanceUpdated",
      "type": "event"
    },
    {
      "anonymous": false,
      "inputs": [
        {
          "indexed": true,
          "name": "by",
          "type": "address"
        },
        {
          "indexed": false,
          "name": "amount",
          "type": "uint256"
        }
      ],
      "name": "LogWithdrawal",
      "type": "event"
    },
    {
      "anonymous": false,
      "inputs": [
        {
          "indexed": true,
          "name": "by",
          "type": "address"
        }
      ],
      "name": "LogKill",
      "type": "event"
    },
    {
      "anonymous": false,
      "inputs": [
        {
          "indexed": true,
          "name": "old",
          "type": "address"
        },
        {
          "indexed": true,
          "name": "current",
          "type": "address"
        }
      ],
      "name": "LogNewOwner",
      "type": "event"
    },
    {
      "constant": true,
      "inputs": [],
      "name": "numVids",
      "outputs": [
        {
          "name": "num",
          "type": "uint256"
        }
      ],
      "payable": false,
      "stateMutability": "view",
      "type": "function"
    },
    {
      "constant": true,
      "inputs": [],
      "name": "getBalance",
      "outputs": [
        {
          "name": "bal",
          "type": "uint256"
        }
      ],
      "payable": false,
      "stateMutability": "view",
      "type": "function"
    },
    {
      "constant": false,
      "inputs": [
        {
          "name": "URL",
          "type": "string"
        },
        {
          "name": "extra",
          "type": "string"
        }
      ],
      "name": "requestVideo",
      "outputs": [
        {
          "name": "videoID",
          "type": "uint256"
        }
      ],
      "payable": true,
      "stateMutability": "payable",
      "type": "function"
    },
    {
      "constant": false,
      "inputs": [],
      "name": "withdrawFunds",
      "outputs": [
        {
          "name": "success",
          "type": "bool"
        }
      ],
      "payable": false,
      "stateMutability": "nonpayable",
      "type": "function"
    },
    {
      "constant": false,
      "inputs": [],
      "name": "kill",
      "outputs": [],
      "payable": false,
      "stateMutability": "nonpayable",
      "type": "function"
    }
  ],
  "bytecode": "0x6060604052341561000f57600080fd5b336000806101000a81548173ffffffffffffffffffffffffffffffffffffffff021916908373ffffffffffffffffffffffffffffffffffffffff16021790555033600360006101000a81548173ffffffffffffffffffffffffffffffffffffffff021916908373ffffffffffffffffffffffffffffffffffffffff160217905550610e358061009f6000396000f3006060604052600436106100a4576000357c0100000000000000000000000000000000000000000000000000000000900463ffffffff16806312065fe0146100b457806313af4035146100dd57806324600fc31461011657806341c0e1b51461014357806344428db9146101585780638da5cb5b14610181578063e6821bf5146101d6578063ea85d2c014610311578063ebec73521461039f578063f9c832c9146103c8575b34156100af57600080fd5b600080fd5b34156100bf57600080fd5b6100c7610471565b6040518082815260200191505060405180910390f35b34156100e857600080fd5b610114600480803573ffffffffffffffffffffffffffffffffffffffff16906020019091905050610490565b005b341561012157600080fd5b610129610641565b604051808215151515815260200191505060405180910390f35b341561014e57600080fd5b61015661074e565b005b341561016357600080fd5b61016b610841565b6040518082815260200191505060405180910390f35b341561018c57600080fd5b61019461084b565b604051808273ffffffffffffffffffffffffffffffffffffffff1673ffffffffffffffffffffffffffffffffffffffff16815260200191505060405180910390f35b34156101e157600080fd5b6101f76004808035906020019091905050610871565b6040518080602001806020018473ffffffffffffffffffffffffffffffffffffffff1673ffffffffffffffffffffffffffffffffffffffff168152602001838103835286818151815260200191508051906020019080838360005b8381101561026d578082015181840152602081019050610252565b50505050905090810190601f16801561029a5780820380516001836020036101000a031916815260200191505b50838103825285818151815260200191508051906020019080838360005b838110156102d35780820151818401526020810190506102b8565b50505050905090810190601f1680156103005780820380516001836020036101000a031916815260200191505b509550505050505060405180910390f35b341561031c57600080fd5b6103246109eb565b6040518080602001828103825283818151815260200191508051906020019080838360005b83811015610364578082015181840152602081019050610349565b50505050905090810190601f1680156103915780820380516001836020036101000a031916815260200191505b509250505060405180910390f35b34156103aa57600080fd5b6103b2610a89565b6040518082815260200191505060405180910390f35b61045b600480803590602001908201803590602001908080601f0160208091040260200160405190810160405280939291908181526020018383808284378201915050505050509190803590602001908201803590602001908080601f01602080910402602001604051908101604052809392919081815260200183838082843782019150505050505091905050610a8f565b6040518082815260200191505060405180910390f35b60003073ffffffffffffffffffffffffffffffffffffffff1631905090565b6000809054906101000a900473ffffffffffffffffffffffffffffffffffffffff1673ffffffffffffffffffffffffffffffffffffffff163373ffffffffffffffffffffffffffffffffffffffff161415156104eb57600080fd5b6000809054906101000a900473ffffffffffffffffffffffffffffffffffffffff1673ffffffffffffffffffffffffffffffffffffffff168173ffffffffffffffffffffffffffffffffffffffff161415151561054757600080fd5b600073ffffffffffffffffffffffffffffffffffffffff168173ffffffffffffffffffffffffffffffffffffffff161415151561058357600080fd5b8073ffffffffffffffffffffffffffffffffffffffff166000809054906101000a900473ffffffffffffffffffffffffffffffffffffffff1673ffffffffffffffffffffffffffffffffffffffff167f1f8d7d25344642d919d55999e4664aa452a5f424bc0936ceb9c2b300db7dcbd960405160405180910390a3806000806101000a81548173ffffffffffffffffffffffffffffffffffffffff021916908373ffffffffffffffffffffffffffffffffffffffff16021790555050565b6000806000809054906101000a900473ffffffffffffffffffffffffffffffffffffffff1673ffffffffffffffffffffffffffffffffffffffff163373ffffffffffffffffffffffffffffffffffffffff1614151561069f57600080fd5b6106a7610471565b90506000811115156106b857600080fd5b3373ffffffffffffffffffffffffffffffffffffffff167fb4214c8c54fc7442f36d3682f59aebaf09358a4431835b30efb29d52cf9e1e91826040518082815260200191505060405180910390a23373ffffffffffffffffffffffffffffffffffffffff166108fc829081150290604051600060405180830381858888f19350505050151561074657600080fd5b600191505090565b6000809054906101000a900473ffffffffffffffffffffffffffffffffffffffff1673ffffffffffffffffffffffffffffffffffffffff163373ffffffffffffffffffffffffffffffffffffffff161415156107a957600080fd5b60006107b3610471565b11156107c3576107c1610641565b505b3373ffffffffffffffffffffffffffffffffffffffff167f7cd531232cf2a935531a2059a1021ee56cecce23e6f421cfa5cb1043fe101ab860405160405180910390a2600360009054906101000a900473ffffffffffffffffffffffffffffffffffffffff1673ffffffffffffffffffffffffffffffffffffffff16ff5b6000600154905090565b600360009054906101000a900473ffffffffffffffffffffffffffffffffffffffff1681565b6004602052806000526040600020600091509050806000018054600181600116156101000203166002900480601f01602080910402602001604051908101604052809291908181526020018280546001816001161561010002031660029004801561091d5780601f106108f25761010080835404028352916020019161091d565b820191906000526020600020905b81548152906001019060200180831161090057829003601f168201915b505050505090806001018054600181600116156101000203166002900480601f0160208091040260200160405190810160405280929190818152602001828054600181600116156101000203166002900480156109bb5780601f10610990576101008083540402835291602001916109bb565b820191906000526020600020905b81548152906001019060200180831161099e57829003601f168201915b5050505050908060020160009054906101000a900473ffffffffffffffffffffffffffffffffffffffff16905083565b60028054600181600116156101000203166002900480601f016020809104026020016040519081016040528092919081815260200182805460018160011615610100020316600290048015610a815780601f10610a5657610100808354040283529160200191610a81565b820191906000526020600020905b815481529060010190602001808311610a6457829003601f168201915b505050505081565b60015481565b6000610a99610d50565b610aa1610d50565b600080600360009054906101000a900473ffffffffffffffffffffffffffffffffffffffff1673ffffffffffffffffffffffffffffffffffffffff1614151515610aea57600080fd5b85925060038351111515610afd57600080fd5b60016000815480929190600101919050559350849150600082511115610b8257600034111515610b2c57600080fd5b3373ffffffffffffffffffffffffffffffffffffffff167fc8390e7323469a0cff9aa3267d81558e5c3151fcf745360a7fb18e7ea9ae6ea9610b6c610471565b6040518082815260200191505060405180910390a25b60046000858152602001908152602001600020905084816001019080519060200190610baf929190610d64565b50338160020160006101000a81548173ffffffffffffffffffffffffffffffffffffffff021916908373ffffffffffffffffffffffffffffffffffffffff16021790555085816000019080519060200190610c0b929190610d64565b508560029080519060200190610c22929190610d64565b503373ffffffffffffffffffffffffffffffffffffffff16847f3bcf37badf56c83bc5dcb9129ad4d15ea4a7272aee31dbd58d6ffff9be31e6c08888604051808060200180602001838103835285818151815260200191508051906020019080838360005b83811015610ca2578082015181840152602081019050610c87565b50505050905090810190601f168015610ccf5780820380516001836020036101000a031916815260200191505b50838103825284818151815260200191508051906020019080838360005b83811015610d08578082015181840152602081019050610ced565b50505050905090810190601f168015610d355780820380516001836020036101000a031916815260200191505b5094505050505060405180910390a383935050505092915050565b602060405190810160405280600081525090565b828054600181600116156101000203166002900490600052602060002090601f016020900481019282601f10610da557805160ff1916838001178555610dd3565b82800160010185558215610dd3579182015b82811115610dd2578251825591602001919060010190610db7565b5b509050610de09190610de4565b5090565b610e0691905b80821115610e02576000816000905550600101610dea565b5090565b905600a165627a7a72305820f7a282a5279af27ef8dba31d1de4edf59a76f71f0512824196bbdf063d42e8760029",
  "source": "pragma solidity ^0.4.11;\n\nimport \"./Ownable.sol\";\n\ncontract Youtube is Ownable {\n\n    struct Video {\n        string URL;\n        string extra;\n        address sender;\n    }\n\n    uint public numVideos;\n\n    string public lastURL;\n    address public owner;\n    mapping (uint => Video) public videos;\n\n    event LogVideoCreated(uint indexed videoId, address indexed by, string URL, string message);\n    event LogBalanceUpdated(address indexed by, uint amount);\n    event LogWithdrawal(address indexed by, uint amount);\n    event LogKill(address indexed by);\n\n    // Constructor\n    function Youtube()\n    public {\n        owner = msg.sender;\n    }\n\n    // Fallback function\n    function()\n    public{\n        revert();\n    }\n\n    function numVids()\n    public\n    view\n    returns (uint num){\n        return numVideos;\n    }\n\n    function getBalance()\n    public\n    view\n    returns (uint bal) {\n        return address(this).balance;\n    }\n\n    function requestVideo(string URL, string extra)\n    public\n    payable\n    returns (uint videoID) {\n        // Check if Contract hasn't been killed\n        require(owner != 0);\n\n        // Checks if a URL length > 4 has been added\n        bytes memory URLString = bytes(URL);\n        require(URLString.length > 3);\n\n        videoID = numVideos++;\n\n        // Checks if a message has been added\n        bytes memory tempEmptyStringTest = bytes(extra);\n        if(tempEmptyStringTest.length > 0){\n            // Require a payment for a custom message\n            require(msg.value > 0);\n\n            emit LogBalanceUpdated(msg.sender, getBalance());\n        }\n\n        // videoID is return variable\n        Video storage v = videos[videoID];\n        v.extra = extra;\n        v.sender = msg.sender;\n        v.URL = URL;\n        lastURL = URL;\n\n        emit LogVideoCreated(videoID, msg.sender, URL, extra);\n\n        return videoID;\n    }\n\n    // The Owner can use this function to withdraw their payments\n    function withdrawFunds()\n    public\n    only_owner\n    returns (bool success){\n        uint amount = getBalance();\n        require(amount > 0);\n\n        // Remember to zero the pending refund before\n        // sending to prevent re-entrancy attacks\n        emit LogWithdrawal(msg.sender, amount);\n\n        msg.sender.transfer(amount);\n\n        return true;\n    }\n\n    function kill()\n    public\n    only_owner {\n        if(getBalance() > 0){\n            withdrawFunds();\n        }\n\n        emit LogKill(msg.sender);\n\n        selfdestruct(owner);\n    }\n}\n",
  "sourcePath": "/Users/WWWillems/Dev/Crypto/eth-tv/contracts/Youtube.sol",
  "compiler": {
    "name": "solc",
    "version": "0.4.21+commit.dfe3193c.Emscripten.clang"
  },
  "schemaVersion": "2.0.0",
  "updatedAt": "2018-05-16T19:16:33.268Z"
}