{
  "contractName": "Youtube",
  "abi": [
    {
      "constant": true,
      "inputs": [],
      "name": "owner",
      "outputs": [
        {
          "name": "",
          "type": "address"
        }
      ],
      "payable": false,
      "stateMutability": "view",
      "type": "function"
    },
    {
      "constant": true,
      "inputs": [],
      "name": "lastRequest",
      "outputs": [
        {
          "name": "URL",
          "type": "string"
        },
        {
          "name": "extra",
          "type": "string"
        },
        {
          "name": "sender",
          "type": "address"
        }
      ],
      "payable": false,
      "stateMutability": "view",
      "type": "function"
    },
    {
      "constant": true,
      "inputs": [
        {
          "name": "",
          "type": "uint256"
        }
      ],
      "name": "videos",
      "outputs": [
        {
          "name": "URL",
          "type": "string"
        },
        {
          "name": "extra",
          "type": "string"
        },
        {
          "name": "sender",
          "type": "address"
        }
      ],
      "payable": false,
      "stateMutability": "view",
      "type": "function"
    },
    {
      "constant": true,
      "inputs": [],
      "name": "numVideos",
      "outputs": [
        {
          "name": "",
          "type": "uint256"
        }
      ],
      "payable": false,
      "stateMutability": "view",
      "type": "function"
    },
    {
      "constant": false,
      "inputs": [
        {
          "name": "newOwner",
          "type": "address"
        }
      ],
      "name": "transferOwnership",
      "outputs": [],
      "payable": false,
      "stateMutability": "nonpayable",
      "type": "function"
    },
    {
      "payable": false,
      "stateMutability": "nonpayable",
      "type": "fallback"
    },
    {
      "anonymous": false,
      "inputs": [
        {
          "indexed": true,
          "name": "videoId",
          "type": "uint256"
        },
        {
          "indexed": true,
          "name": "by",
          "type": "address"
        },
        {
          "indexed": false,
          "name": "URL",
          "type": "string"
        },
        {
          "indexed": false,
          "name": "message",
          "type": "string"
        }
      ],
      "name": "LogVideoCreated",
      "type": "event"
    },
    {
      "anonymous": false,
      "inputs": [
        {
          "indexed": true,
          "name": "by",
          "type": "address"
        },
        {
          "indexed": false,
          "name": "amount",
          "type": "uint256"
        }
      ],
      "name": "LogBalanceUpdated",
      "type": "event"
    },
    {
      "anonymous": false,
      "inputs": [
        {
          "indexed": true,
          "name": "by",
          "type": "address"
        },
        {
          "indexed": false,
          "name": "amount",
          "type": "uint256"
        }
      ],
      "name": "LogWithdrawal",
      "type": "event"
    },
    {
      "anonymous": false,
      "inputs": [
        {
          "indexed": true,
          "name": "by",
          "type": "address"
        }
      ],
      "name": "LogKill",
      "type": "event"
    },
    {
      "anonymous": false,
      "inputs": [
        {
          "indexed": true,
          "name": "previousOwner",
          "type": "address"
        },
        {
          "indexed": true,
          "name": "newOwner",
          "type": "address"
        }
      ],
      "name": "OwnershipTransferred",
      "type": "event"
    },
    {
      "constant": true,
      "inputs": [],
      "name": "numVids",
      "outputs": [
        {
          "name": "num",
          "type": "uint256"
        }
      ],
      "payable": false,
      "stateMutability": "view",
      "type": "function"
    },
    {
      "constant": true,
      "inputs": [],
      "name": "getBalance",
      "outputs": [
        {
          "name": "bal",
          "type": "uint256"
        }
      ],
      "payable": false,
      "stateMutability": "view",
      "type": "function"
    },
    {
      "constant": false,
      "inputs": [
        {
          "name": "URL",
          "type": "string"
        },
        {
          "name": "extra",
          "type": "string"
        }
      ],
      "name": "requestVideo",
      "outputs": [
        {
          "name": "videoID",
          "type": "uint256"
        }
      ],
      "payable": true,
      "stateMutability": "payable",
      "type": "function"
    },
    {
      "constant": false,
      "inputs": [],
      "name": "withdrawFunds",
      "outputs": [
        {
          "name": "success",
          "type": "bool"
        }
      ],
      "payable": false,
      "stateMutability": "nonpayable",
      "type": "function"
    },
    {
      "constant": false,
      "inputs": [],
      "name": "kill",
      "outputs": [],
      "payable": false,
      "stateMutability": "nonpayable",
      "type": "function"
    }
  ],
  "bytecode": "0x6080604052336000806101000a81548173ffffffffffffffffffffffffffffffffffffffff021916908373ffffffffffffffffffffffffffffffffffffffff1602179055506110c0806100536000396000f3006080604052600436106100a4576000357c0100000000000000000000000000000000000000000000000000000000900463ffffffff16806312065fe0146100f357806324600fc31461011e57806341c0e1b51461014d57806344428db9146101645780638da5cb5b1461018f578063cd9deaca146101e6578063e6821bf514610315578063ebec73521461045a578063f2fde38b14610485578063f9c832c9146104c8575b3480156100b057600080fd5b50336000806101000a81548173ffffffffffffffffffffffffffffffffffffffff021916908373ffffffffffffffffffffffffffffffffffffffff160217905550005b3480156100ff57600080fd5b5061010861057e565b6040518082815260200191505060405180910390f35b34801561012a57600080fd5b5061013361059d565b604051808215151515815260200191505060405180910390f35b34801561015957600080fd5b506101626106b1565b005b34801561017057600080fd5b506101796107a3565b6040518082815260200191505060405180910390f35b34801561019b57600080fd5b506101a46107ad565b604051808273ffffffffffffffffffffffffffffffffffffffff1673ffffffffffffffffffffffffffffffffffffffff16815260200191505060405180910390f35b3480156101f257600080fd5b506101fb6107d2565b6040518080602001806020018473ffffffffffffffffffffffffffffffffffffffff1673ffffffffffffffffffffffffffffffffffffffff168152602001838103835286818151815260200191508051906020019080838360005b83811015610271578082015181840152602081019050610256565b50505050905090810190601f16801561029e5780820380516001836020036101000a031916815260200191505b50838103825285818151815260200191508051906020019080838360005b838110156102d75780820151818401526020810190506102bc565b50505050905090810190601f1680156103045780820380516001836020036101000a031916815260200191505b509550505050505060405180910390f35b34801561032157600080fd5b506103406004803603810190808035906020019092919050505061093a565b6040518080602001806020018473ffffffffffffffffffffffffffffffffffffffff1673ffffffffffffffffffffffffffffffffffffffff168152602001838103835286818151815260200191508051906020019080838360005b838110156103b657808201518184015260208101905061039b565b50505050905090810190601f1680156103e35780820380516001836020036101000a031916815260200191505b50838103825285818151815260200191508051906020019080838360005b8381101561041c578082015181840152602081019050610401565b50505050905090810190601f1680156104495780820380516001836020036101000a031916815260200191505b509550505050505060405180910390f35b34801561046657600080fd5b5061046f610ab4565b6040518082815260200191505060405180910390f35b34801561049157600080fd5b506104c6600480360381019080803573ffffffffffffffffffffffffffffffffffffffff169060200190929190505050610aba565b005b610568600480360381019080803590602001908201803590602001908080601f0160208091040260200160405190810160405280939291908181526020018383808284378201915050505050509192919290803590602001908201803590602001908080601f0160208091040260200160405190810160405280939291908181526020018383808284378201915050505050509192919290505050610c0f565b6040518082815260200191505060405180910390f35b60003073ffffffffffffffffffffffffffffffffffffffff1631905090565b6000806000809054906101000a900473ffffffffffffffffffffffffffffffffffffffff1673ffffffffffffffffffffffffffffffffffffffff163373ffffffffffffffffffffffffffffffffffffffff161415156105fb57600080fd5b61060361057e565b905060008111151561061457600080fd5b3373ffffffffffffffffffffffffffffffffffffffff167fb4214c8c54fc7442f36d3682f59aebaf09358a4431835b30efb29d52cf9e1e91826040518082815260200191505060405180910390a23373ffffffffffffffffffffffffffffffffffffffff166108fc829081150290604051600060405180830381858888f193505050501580156106a8573d6000803e3d6000fd5b50600191505090565b6000809054906101000a900473ffffffffffffffffffffffffffffffffffffffff1673ffffffffffffffffffffffffffffffffffffffff163373ffffffffffffffffffffffffffffffffffffffff1614151561070c57600080fd5b600061071661057e565b11156107265761072461059d565b505b3373ffffffffffffffffffffffffffffffffffffffff167f7cd531232cf2a935531a2059a1021ee56cecce23e6f421cfa5cb1043fe101ab860405160405180910390a26000809054906101000a900473ffffffffffffffffffffffffffffffffffffffff1673ffffffffffffffffffffffffffffffffffffffff16ff5b6000600154905090565b6000809054906101000a900473ffffffffffffffffffffffffffffffffffffffff1681565b6002806000018054600181600116156101000203166002900480601f01602080910402602001604051908101604052809291908181526020018280546001816001161561010002031660029004801561086c5780601f106108415761010080835404028352916020019161086c565b820191906000526020600020905b81548152906001019060200180831161084f57829003601f168201915b505050505090806001018054600181600116156101000203166002900480601f01602080910402602001604051908101604052809291908181526020018280546001816001161561010002031660029004801561090a5780601f106108df5761010080835404028352916020019161090a565b820191906000526020600020905b8154815290600101906020018083116108ed57829003601f168201915b5050505050908060020160009054906101000a900473ffffffffffffffffffffffffffffffffffffffff16905083565b6005602052806000526040600020600091509050806000018054600181600116156101000203166002900480601f0160208091040260200160405190810160405280929190818152602001828054600181600116156101000203166002900480156109e65780601f106109bb576101008083540402835291602001916109e6565b820191906000526020600020905b8154815290600101906020018083116109c957829003601f168201915b505050505090806001018054600181600116156101000203166002900480601f016020809104026020016040519081016040528092919081815260200182805460018160011615610100020316600290048015610a845780601f10610a5957610100808354040283529160200191610a84565b820191906000526020600020905b815481529060010190602001808311610a6757829003601f168201915b5050505050908060020160009054906101000a900473ffffffffffffffffffffffffffffffffffffffff16905083565b60015481565b6000809054906101000a900473ffffffffffffffffffffffffffffffffffffffff1673ffffffffffffffffffffffffffffffffffffffff163373ffffffffffffffffffffffffffffffffffffffff16141515610b1557600080fd5b600073ffffffffffffffffffffffffffffffffffffffff168173ffffffffffffffffffffffffffffffffffffffff1614151515610b5157600080fd5b8073ffffffffffffffffffffffffffffffffffffffff166000809054906101000a900473ffffffffffffffffffffffffffffffffffffffff1673ffffffffffffffffffffffffffffffffffffffff167f8be0079c531659141344cd1fd0a4f28419497f9722a3daafe3b4186f6b6457e060405160405180910390a3806000806101000a81548173ffffffffffffffffffffffffffffffffffffffff021916908373ffffffffffffffffffffffffffffffffffffffff16021790555050565b60006060806000806000809054906101000a900473ffffffffffffffffffffffffffffffffffffffff1673ffffffffffffffffffffffffffffffffffffffff1614151515610c5c57600080fd5b85925060038351111515610c6f57600080fd5b60016000815480929190600101919050559350849150600082511115610cf457600034111515610c9e57600080fd5b3373ffffffffffffffffffffffffffffffffffffffff167fc8390e7323469a0cff9aa3267d81558e5c3151fcf745360a7fb18e7ea9ae6ea9610cde61057e565b6040518082815260200191505060405180910390a25b60056000858152602001908152602001600020905084816001019080519060200190610d21929190610f68565b50338160020160006101000a81548173ffffffffffffffffffffffffffffffffffffffff021916908373ffffffffffffffffffffffffffffffffffffffff16021790555085816000019080519060200190610d7d929190610f68565b5080600260008201816000019080546001816001161561010002031660029004610da8929190610fe8565b5060018201816001019080546001816001161561010002031660029004610dd0929190610fe8565b506002820160009054906101000a900473ffffffffffffffffffffffffffffffffffffffff168160020160006101000a81548173ffffffffffffffffffffffffffffffffffffffff021916908373ffffffffffffffffffffffffffffffffffffffff1602179055509050503373ffffffffffffffffffffffffffffffffffffffff16847f3bcf37badf56c83bc5dcb9129ad4d15ea4a7272aee31dbd58d6ffff9be31e6c08888604051808060200180602001838103835285818151815260200191508051906020019080838360005b83811015610eba578082015181840152602081019050610e9f565b50505050905090810190601f168015610ee75780820380516001836020036101000a031916815260200191505b50838103825284818151815260200191508051906020019080838360005b83811015610f20578082015181840152602081019050610f05565b50505050905090810190601f168015610f4d5780820380516001836020036101000a031916815260200191505b5094505050505060405180910390a383935050505092915050565b828054600181600116156101000203166002900490600052602060002090601f016020900481019282601f10610fa957805160ff1916838001178555610fd7565b82800160010185558215610fd7579182015b82811115610fd6578251825591602001919060010190610fbb565b5b509050610fe4919061106f565b5090565b828054600181600116156101000203166002900490600052602060002090601f016020900481019282601f10611021578054855561105e565b8280016001018555821561105e57600052602060002091601f016020900482015b8281111561105d578254825591600101919060010190611042565b5b50905061106b919061106f565b5090565b61109191905b8082111561108d576000816000905550600101611075565b5090565b905600a165627a7a723058206f697e9d02d7822494ca379e82afa17070f87bae57c17986a0e46761125763460029",
  "source": "pragma solidity ^0.4.11;\n\nimport 'zeppelin-solidity/contracts/ownership/Ownable.sol';\n\ncontract Youtube is Ownable {\n\n    struct Video {\n        string URL;\n        string extra;\n        address sender;\n    }\n\n    uint public numVideos;\n\n    Video public lastRequest;\n    mapping (uint => Video) public videos;\n\n    event LogVideoCreated(uint indexed videoId, address indexed by, string URL, string message);\n    event LogBalanceUpdated(address indexed by, uint amount);\n    event LogWithdrawal(address indexed by, uint amount);\n    event LogKill(address indexed by);\n\n    // Constructor\n    function ()\n    public {\n        owner = msg.sender;\n    }\n\n    function numVids()\n    public\n    view\n    returns (uint num){\n        return numVideos;\n    }\n\n    function getBalance()\n    public\n    view\n    returns (uint bal) {\n        return address(this).balance;\n    }\n\n    function requestVideo(string URL, string extra)\n    public\n    payable\n    returns (uint videoID) {\n        // Check if Contract hasn't been killed\n        require(owner != 0);\n\n        // TODO: Improve this\n        // Checks if a URL length > 4 has been added\n        bytes memory URLString = bytes(URL);\n        require(URLString.length > 3);\n\n        videoID = numVideos++;\n\n        // TODO: Improve this\n        // Checks if a message has been added\n        bytes memory tempEmptyStringTest = bytes(extra);\n        if(tempEmptyStringTest.length > 0){\n            // Require a payment for a custom message\n            require(msg.value > 0);\n\n            emit LogBalanceUpdated(msg.sender, getBalance());\n        }\n\n        // videoID is return variable\n        Video storage v = videos[videoID];\n        v.extra = extra;\n        v.sender = msg.sender;\n        v.URL = URL;\n\n        // TODO: Improve this\n        lastRequest = v;\n\n        emit LogVideoCreated(videoID, msg.sender, URL, extra);\n\n        return videoID;\n    }\n\n    // The Owner can use this function to withdraw their payments\n    function withdrawFunds()\n    public\n    onlyOwner\n    returns (bool success){\n        uint amount = getBalance();\n        require(amount > 0);\n\n        // Remember to zero the pending refund before\n        // sending to prevent re-entrancy attacks\n        emit LogWithdrawal(msg.sender, amount);\n\n        msg.sender.transfer(amount);\n\n        return true;\n    }\n\n    function kill()\n    public\n    onlyOwner {\n        if(getBalance() > 0){\n            withdrawFunds();\n        }\n\n        emit LogKill(msg.sender);\n\n        selfdestruct(owner);\n    }\n}\n",
  "sourcePath": "/Users/janjorissen/Projects/b9labs-eth20/contracts/Youtube.sol",
  "compiler": {
    "name": "solc",
    "version": "0.4.24+commit.e67f0147.Emscripten.clang"
  },
  "schemaVersion": "2.0.0",
  "updatedAt": "2019-05-24T09:54:20.882Z"
}